:100000000C9458000C9480000C9480000C94800098
:100010000C9480000C9480000C9480000C94800060
:100020000C9480000C9480000C9480000C94800050
:100030000C9480000C9480000C9480000C94800040
:100040000C94D4030C9480000C94A2030C947C03B5
:100050000C9480000C9480000C9480000C94800020
:100060000C941E040C948000000000002500280061
:100070002B00040404040404040402020202020229
:10008000030303030303010204081020408001025C
:1000900004081020010204081020000000080002DB
:1000A00001000003040700000000000000004C05F0
:1000B00011241FBECFEFD8E0DEBFCDBF23E0ACEAF6
:1000C000B1E001C01D92AA33B207E1F711E0A0E050
:1000D000B1E0ECEAFEE002C005900D92AC3AB10747
:1000E000D9F710E0C8E5D0E004C02197FE010E94D6
:1000F0004907C735D107C9F70E9497050C945407E3
:100100000C940000E9E4F2E0A089B18982E08C93CC
:10011000A485B5851C92A685B7858FEC8C93108E2F
:10012000A489B58986E08C93A289B3898C9180617A
:100130008C93A289B3898C9188608C93A289B389AE
:100140008C9180688C930288F389E02D80818F7D6B
:100150008083089590E0FC01E656FF4F2491FC0156
:10016000EA57FF4F3491FC01EE58FF4FE491EE2324
:10017000B1F1222339F1233091F038F42130A9F084
:10018000223001F584B58F7D12C0273091F02830E0
:10019000A1F02430B9F4809180008F7D03C080915C
:1001A00080008F77809380000DC084B58F7784BDE9
:1001B00009C08091B0008F7703C08091B0008F7D1F
:1001C0008093B000F0E0EE0FFF1FE859FF4FA591BC
:1001D000B4918FB7F894EC913E2B3C938FBF089568
:1001E000CF92DF92EF92FF920F931F932FB7F89465
:1001F000C0904502D0904602E0904702F09048023D
:100200002FBFDC01CB018C0D9D1DAE1DBF1D4FB757
:10021000F8940091450210914602209147023091D6
:1002200048024FBF0C151D052E053F0528F080170D
:100230009107A207B30758F71F910F91FF90EF9016
:10024000DF90CF900895CF92DF92EF92FF920F93BD
:100250001F93CF93DF936C017A018B01C0E0D0E054
:10026000CE15DF0589F0D8016D918D01D601ED9194
:10027000FC910190F081E02DC6010995892B11F4C4
:100280007E0102C02196ECCFC701DF91CF911F9173
:100290000F91FF90EF90DF90CF900895FC01538D68
:1002A000448D252F30E0842F90E0821B930B541750
:1002B00010F0CF96089501970895FC01918D828DDD
:1002C000981761F0828DDF01A80FB11D5D968C91AA
:1002D000928D9F5F9F73928F90E008958FEF9FEFB5
:1002E0000895FC01918D828D981731F0828DE80F71
:1002F000F11D858D90E008958FEF9FEF0895FC012B
:10030000918D228D892F90E0805C9F4F821B9109F7
:100310008F739927089589E492E00E947F0121E07C
:10032000892B09F420E0822F0895FC01848DDF01E0
:10033000A80FB11DA35ABF4F2C91848D90E0019658
:100340008F739927848FA689B7892C93A089B18947
:100350008C9180648C93938D848D981306C0028851
:10036000F389E02D80818F7D80830895EF92FF9245
:100370000F931F93CF93DF93EC0181E0888F9B8DC8
:100380008C8D981305C0E889F989808185FD24C08A
:10039000F62E0B8D10E00F5F1F4F0F731127E02E0D
:1003A0008C8DE8120CC00FB607FCFACFE889F989EA
:1003B000808185FFF5CFCE010E949501F1CF8B8D15
:1003C000FE01E80FF11DE35AFF4FF0820B8FEA891F
:1003D000FB898081806207C0EE89FF896083E8899C
:1003E000F98980818064808381E090E0DF91CF9102
:1003F0001F910F91FF90EF900895CF93DF93EC0141
:10040000888D8823C9F0EA89FB89808185FD05C034
:10041000A889B9898C9186FD0FC00FB607FCF5CF6E
:10042000808185FFF2CFA889B9898C9185FFEDCFB6
:10043000CE010E949501E7CFDF91CF91089580E032
:1004400090E0892B29F00E948B0181110C9400000F
:1004500008953FB7F8948091F4019091F501A0912F
:10046000F601B091F70126B5A89B05C02F3F19F002
:100470000196A11DB11D3FBFBA2FA92F982F882724
:10048000820F911DA11DB11DBC01CD0142E0660F7F
:10049000771F881F991F4A95D1F7089585ED80939E
:1004A000BC008091BC0084FDFCCF10922002089516
:1004B0004091CE01262F30E0240F311D213231052D
:1004C000DCF4209120022430C9F4FC0180E090E0AB
:1004D000861758F43091CE012191DC01A455BE4F0E
:1004E000A30FB11D2C930196F3CF8091CE01680F1D
:1004F0006093CE0180E0089581E0089582E0089540
:10050000089581E090E03091F9012091F8013217CF
:1005100010F480E090E09195819591090895809183
:10052000F9019091F801891730F48F5F8093F901F8
:1005300080E090E008958FEF9FEF08958091F8019B
:1005400090E02091F901821B91090895CF92DF92EA
:10055000EF92FF920F931F93CF93DF937C01262F8F
:10056000972F8A0180912102882391F0C62FD72FDF
:100570006E01C40ED51ECC15DD0571F06991D70151
:10058000ED91FC910190F081E02DC7010995F3CF29
:10059000642F822F0E945802C801DF91CF911F91D2
:1005A0000F91FF90EF90DF90CF900895CF93DF935E
:1005B0001F92CDB7DEB76983209121022223D1F0AB
:1005C00020914402203240F021E030E0FC013383EE
:1005D000228380E090E015C080912202E82FF0E0B5
:1005E000ED5DFD4F998190838F5F80932202809310
:1005F000440205C061E0CE0101960E94580281E0EC
:1006000090E00F90DF91CF910895089580E090E001
:1006100008956115710579F0FB0101900020E9F75B
:100620003197AF01461B570BDC01ED91FC91028025
:10063000F381E02D099480E090E00895CF93DF935B
:10064000BC0189E492E00E940903EC0163E371E0DC
:1006500089E492E00E9409038C0F9D1FDF91CF91E6
:1006600008954F925F926F927F92EF92FF920F9355
:100670001F93CF93DF93CDB7DEB7A1970FB6F89452
:10068000DEBF0FBECDBF7C01FA01CB0119A2223023
:1006900008F42AE08E010F5D1F4F422E512C612C71
:1006A000712CBF01A30192010E942707F901CA0121
:1006B000015011096A3014F4605D01C0695CD80111
:1006C0006C93232B242B252B61F7B801C7010E94C3
:1006D0000903A1960FB6F894DEBF0FBECDBFDF9120
:1006E000CF911F910F91FF90EF907F906F905F904F
:1006F0004F9008950E944F071F920F920FB60F92CE
:1007000011242F933F934F935F936F937F938F9316
:100710009F93AF93BF93EF93FF9389E492E00E947E
:100720009501FF91EF91BF91AF919F918F917F9133
:100730006F915F914F913F912F910F900FBE0F904E
:100740001F9018951F920F920FB60F9211242F939E
:100750008F939F93EF93FF93E0915902F0915A0288
:100760008081E0915F02F091600282FD12C0908171
:10077000809162028F5F8F7320916302821751F024
:10078000E0916202F0E0E75BFD4F958F809362029B
:1007900001C08081FF91EF919F918F912F910F90D8
:1007A0000FBE0F901F9018951F920F920FB60F92C9
:1007B00011242F933F938F939F93AF93BF93809177
:1007C000450290914602A0914702B09148023091B3
:1007D000F30123E0230F2D3720F40196A11DB11D55
:1007E00005C026E8230F0296A11DB11D2093F30139
:1007F0008093450290934602A0934702B09348022B
:100800008091F4019091F501A091F601B091F7016A
:100810000196A11DB11D8093F4019093F501A09361
:10082000F601B093F701BF91AF919F918F913F91E6
:100830002F910F900FBE0F901F9018951F920F923F
:100840000FB60F9211242F933F934F935F936F93A3
:100850007F938F939F93AF93BF93EF93FF93809179
:10086000B900887F803609F49CC068F5883209F4A5
:100870005BC090F4803109F454C038F4882309F443
:10088000F6C0883009F44DC0F6C0883109F44CC078
:10089000803209F45DC0EFC0803409F468C048F4C8
:1008A000803309F455C0883309F0E5C080931E02F7
:1008B000D8C0803509F44FC0883509F45DC088344C
:1008C00009F0D9C0D6C0883909F4C7C0A8F4883760
:1008D00009F467C038F4883609F463C0803709F436
:1008E00060C0C9C0883809F4B8C0803909F45FC055
:1008F000803809F0C0C05BC0803B09F486C038F482
:10090000803A09F466C0883A09F47FC0B4C0803CDC
:1009100009F4A7C0883C09F4A4C0883B09F48AC044
:10092000AAC08091FB0110C090911D0280911C0211
:10093000981770F5E0911D0281E08E0F80931D02E3
:10094000F0E0E450FE4F80818093BB0085EC86C0D0
:1009500080931E028EC0E0911D0281E08E0F809375
:100960001D028091BB00F0E0E450FE4F8083909127
:100970001D0280911C026EC0E0911D0281E08E0F6D
:1009800080931D028091BB00F0E0E450FE4F808315
:1009900080911F0281116DC081E08093FA0184EA89
:1009A00061C083E0809320021092F201CFCF80914A
:1009B000F201803208F051C0E091F20181E08E0F27
:1009C0008093F2018091BB00F0E0EE52FE4F8083F5
:1009D000BDCF85EC8093BC00109220028091F20183
:1009E000803230F4E091F201F0E0EE52FE4F1082DE
:1009F0006091F20170E0E091D001F091D10182EDBF
:100A000091E009951092F20136C084E080932002B3
:100A10001092CF011092CE01E091CC01F091CD0166
:100A200009958091CE01811105C081E08093CE01AE
:100A30001092AC01E091CF0181E08E0F8093CF0145
:100A4000F0E0E455FE4F80818093BB009091CF0190
:100A50008091CE01981708F479CF85E88093BC0087
:100A60000AC085EC8093BC001092200204C0109252
:100A70001E020E944E02FF91EF91BF91AF919F9194
:100A80008F917F916F915F914F913F912F910F9037
:100A90000FBE0F901F901895E9E4F2E013821282C6
:100AA00088EE93E0A0E0B0E084839583A683B783CB
:100AB00024E031E03183208325EC30E03587248742
:100AC00024EC30E03787268720EC30E0318B208B18
:100AD00021EC30E0338B228B22EC30E0358B248B01
:100AE00026EC30E0378B268B118E128E138E148EEF
:100AF000E6EEF2E0168217821086118612861386C1
:100B00001486158616861786108A118A128A138A09
:100B1000148A158AEEE2F3E01382128284839583AD
:100B2000A683B78386E191E09183808308957894CA
:100B300084B5826084BD84B5816084BD85B58260E2
:100B400085BD85B5816085BD80916E008160809393
:100B50006E001092810080918100826080938100FC
:100B6000809181008160809381008091800081600C
:100B7000809380008091B10084608093B100809167
:100B8000B00081608093B00080917A00846080938F
:100B90007A0080917A00826080937A0080917A0056
:100BA000816080937A0080917A00806880937A00D7
:100BB0001092C10010922A0310922B0310922C0362
:100BC00010922D031092E8021092E9021092EA02AC
:100BD0001092EB0268EB7BE080E090E00E94F00076
:100BE00089E492E090932903809328030E94820075
:100BF0002FB7F8948091450290914602A091470248
:100C0000B09148022FBF8093E8029093E902A0932D
:100C1000EA02B093EB0264E271E0809128039091C4
:100C200029030E9409036AE070E080E090E00E94DE
:100C3000F00081E08093FC021092F9011092F8011B
:100C400010922202109244021092200280931F02FE
:100C50001092FA0182E10E94AA0083E10E94AA0098
:100C60008091B9008E7F8093B9008091B9008D7F0B
:100C70008093B90088E48093B80085E48093BC0039
:100C80000E94820086E391E00E941E0305EE65EC5F
:100C9000B62E11E072E0A72E99249A9483E491E095
:100CA0000E941E03C12CD12C7601C394C0E0D0E079
:100CB00010932102C0924302109222021092440229
:100CC000809120028111FCCFA092200210931F027C
:100CD00090921E0210921D0210921C021092FB01B3
:100CE0009091FB019601220F331F292B2093FB01CA
:100CF0009091FA01913069F41092FA019091FB0100
:100D00009093BB009091BC0093FDF8CFB092BC00D3
:100D100002C00093BC00909120029230E1F39091C8
:100D20001E029F3F69F080911E02803231F0809157
:100D30001E02803321F084E003C082E001C083E022
:100D400010922202109244021092210281111FC0BF
:100D50006FE471E089E492E00E94090320E1C21689
:100D6000D104E104F10430F46EE671E089E492E02C
:100D70000E94090320E1B701A60189E492E00E94E4
:100D8000310380E791E00E941E03219621C0843048
:100D9000F9F464E771E089E492E00E94090380E1DC
:100DA000C816D104E104F10430F46EE671E089E480
:100DB00092E00E94090320E1B701A60189E492E0D4
:100DC0000E94310363E371E089E492E00E94090329
:100DD0002FEFC21AD20AE20AF20A8FE7C816D1042C
:100DE000E104F10409F064CFCD2B19F480E991E01E
:100DF00002C086EA91E00E941E030E9429022B0194
:100E00003C0188E8C82E83E1D82EE12CF12C0E9409
:100E10002902DC01CB0184199509A609B709883E8E
:100E20009340A105B10558F021E0C21AD108E108AC
:100E3000F10888EE480E83E0581E611C711CC11435
:100E4000D104E104F10419F70E941F0227CFA1E2A7
:100E50001A2EAA1BBB1BFD010DC0AA1FBB1FEE1F34
:100E6000FF1FA217B307E407F50720F0A21BB30B7F
:100E7000E40BF50B661F771F881F991F1A9469F7FB
:100E800060957095809590959B01AC01BD01CF0157
:100E90000895EE0FFF1F0590F491E02D099481E075
:0C0EA00090E0F8940C945407F894FFCFF5
:100EAC0000000000B60123014E01FD017F015D0130
:100EBC00710100000000D602A602060380029E0209
:100ECC008F028102564D4450565F317C315F564D36
:100EDC004450560D0A000A493243205363616E6E2A
:100EEC006572005363616E6E696E672E2E2E00491B
:100EFC0032432064657669636520666F756E642085
:100F0C006174206164647265737320307800300002
:100F1C0020202100556E6B6E6F776E206572726F9C
:100F2C007220617420616464726573732030780080
:100F3C004E6F204932432064657669636573206681
:0C0F4C006F756E640A00646F6E650A0029
:107800000C94343C0C94513C0C94513C0C94513CE1
:107810000C94513C0C94513C0C94513C0C94513CB4
:107820000C94513C0C94513C0C94513C0C94513CA4
:107830000C94513C0C94513C0C94513C0C94513C94
:107840000C94513C0C94513C0C94513C0C94513C84
:107850000C94513C0C94513C0C94513C0C94513C74
:107860000C94513C0C94513C11241FBECFEFD8E036
:10787000DEBFCDBF11E0A0E0B1E0ECE9FFE702C060
:1078800005900D92A230B107D9F712E0A2E0B1E065
:1078900001C01D92AD30B107E1F70E942D3D0C945F
:1078A000CC3F0C94003C982F959595959595959582
:1078B000905D8F708A307CF0282F295A8091C0000B
:1078C00085FFFCCF9093C6008091C00085FFFCCF60
:1078D0002093C6000895282F205DF0CF982F809127
:1078E000C00085FFFCCF9093C6000895EF92FF92F1
:1078F0000F931F93EE24FF2487018091C00087FD22
:1079000017C00894E11CF11C011D111D81E4E8164B
:1079100082E4F8068FE0080780E0180770F3E09132
:107920000401F091050109958091C00087FFE9CF1E
:107930008091C6001F910F91FF90EF9008950E94D3
:10794000763C982F8091C00085FFFCCF9093C600B5
:1079500091362CF490330CF09053892F089597555D
:10796000892F08951F930E949F3C182F0E949F3CCF
:107970001295107F810F1F9108951F93182F882350
:1079800021F00E94763C1150E1F71F9108951F935A
:10799000182F0E94763C803249F0809103018F5F5E
:1079A000809303018530C1F01F9108958091C0003C
:1079B00085FFFCCF84E18093C6008091C00085FFE5
:1079C000FCCF1093C6008091C00085FFFCCF80E102
:1079D0008093C6001F910895E0910401F091050184
:1079E00009951F9108950E94763C803241F0809164
:1079F00003018F5F80930301853081F008958091AA
:107A0000C00085FFFCCF84E18093C6008091C00058
:107A100085FFFCCF80E18093C6000895E0910401CA
:107A2000F09105010995089540E951E08823A1F0FE
:107A30002D9A28EE33E0FA013197F1F721503040CA
:107A4000D1F72D9828EE33E0FA013197F1F7215064
:107A50003040D1F7815061F708953F924F925F9285
:107A60006F927F928F929F92AF92BF92CF92DF924E
:107A7000EF92FF920F931F93CF93DF93000080E16B
:107A80008093C4001092C50088E18093C10086E015
:107A90008093C2005098589A259A81E00E94143D24
:107AA00024E1F22E9EE1E92E85E9D82E0FE0C02ECA
:107AB00010E1B12EAA24A394B1E49B2EA6E58A2E50
:107AC000F2E57F2EE0E26E2E79E4572E63E5462E36
:107AD00050E5352E0E94763C8033B1F18133B9F107
:107AE000803409F46FC0813409F476C0823409F41B
:107AF00085C0853409F488C0803531F1823521F1A3
:107B0000813511F1853509F485C0863509F48DC0BC
:107B1000843609F496C0843709F403C1853709F423
:107B200072C1863709F466C0809103018F5F80932C
:107B30000301853079F6E0910401F0910501099582
:107B40000E94763C803351F60E94F33CC3CF0E94E2
:107B5000763C803249F78091C00085FFFCCFF092DF
:107B6000C6008091C00085FFFCCF9092C600809136
:107B7000C00085FFFCCF8092C6008091C00085FFC9
:107B8000FCCF7092C6008091C00085FFFCCF609250
:107B9000C6008091C00085FFFCCF5092C600809146
:107BA000C00085FFFCCF4092C6008091C00085FFD9
:107BB000FCCF3092C6008091C00085FFFCCFB09210
:107BC000C60088CF0E94763C863808F4BDCF0E945C
:107BD000763C0E94F33C7ECF0E94763C803809F4CC
:107BE0009CC0813809F40BC1823809F43CC1883942
:107BF00009F48FC080E00E94C73C6CCF84E10E94F2
:107C0000BD3C0E94F33C66CF85E00E94BD3C0E94D3
:107C1000F33C60CF0E94763C809306010E94763C44
:107C2000809307010E94F33C55CF0E94763C80333D
:107C300009F41DC183E00E94BD3C80E00E94C73C66
:107C400049CF0E94763C809309020E94763C809343
:107C5000080280910C028E7F80930C020E94763C79
:107C6000853409F415C18091080290910902892B8D
:107C700089F000E010E00E94763CF801E85FFE4FDA
:107C800080830F5F1F4F80910802909109020817AF
:107C9000190788F30E94763C803209F045CF809125
:107CA0000C0280FF01C16091060170910701660F0F
:107CB000771F7093070160930601A0910802B091AD
:107CC00009021097C9F0E8E0F1E09B01AD014E0F09
:107CD0005F1FF999FECF32BD21BD819180BDFA9A17
:107CE000F99A2F5F3F4FE417F50799F76A0F7B1F4B
:107CF00070930701609306018091C00085FFFCCF5F
:107D0000F092C6008091C00085FFFCCFB092C60003
:107D1000E1CE83E00E94C73CDDCE82E00E94C73CFA
:107D2000D9CE0E94763C809309020E94763C8093D3
:107D300008028091060190910701880F991F909386
:107D40000701809306010E94763C853409F4A6C0A1
:107D500080910C028E7F80930C020E94763C8032D0
:107D600009F0B8CE8091C00085FFFCCFF092C6002C
:107D7000609108027091090261157105B9F140E046
:107D800050E080910C02A82FA170B82FB27011C0E2
:107D9000BB2309F45CC0E0910601F0910701319624
:107DA000F0930701E09306014F5F5F4F46175707B7
:107DB000E8F4AA2369F3F999FECF209106013091E6
:107DC000070132BD21BDF89A90B58091C00085FFB2
:107DD000FCCF9093C6002F5F3F4F30930701209355
:107DE00006014F5F5F4F4617570718F38091C00099
:107DF00085FDE5CE8091C00085FFF8CFE0CE81E023
:107E00000E94C73C67CE0E94763C803209F08CCE3F
:107E10008091C00085FFFCCFF092C6008091C00029
:107E200085FFFCCFE092C6008091C00085FFFCCFAB
:107E3000D092C6008091C00085FFFCCFC092C600E2
:107E40008091C00085FFFCCFB092C60043CEE09188
:107E50000601F091070194918091C00085FFFCCF4D
:107E60009093C6009CCF80E10E94C73C33CE0E9415
:107E7000763C0E94763C182F0E94763C112309F430
:107E800083C0113009F484C08FE00E94C73C22CE29
:107E900080910C02816080930C02E5CE80910C02EF
:107EA000816080930C0259CF809107018823880F4D
:107EB000880B8A2180930B02809106019091070123
:107EC000880F991F90930701809306018091080203
:107ED00080FF09C080910802909109020196909359
:107EE000090280930802F894F999FECF1127E091D6
:107EF0000601F0910701C8E0D1E08091080290915D
:107F00000902103091F40091570001700130D9F34B
:107F100003E000935700E89500915700017001308D
:107F2000D9F301E100935700E89509901990009169
:107F3000570001700130D9F301E000935700E89534
:107F40001395103498F011270091570001700130FB
:107F5000D9F305E000935700E895009157000170B0
:107F60000130D9F301E100935700E895329602976A
:107F700009F0C7CF103011F00296E5CF112480919F
:107F8000C00085FFB9CEBCCE8EE10E94C73CA2CD19
:0C7F900085E90E94C73C9ECDF894FFCF0D
:027F9C00800063
:040000030000780081
:00000001FF