:100000000C9462000C948A000C948A000C948A0070
:100010000C948A000C948A000C948A000C948A0038
:100020000C948A000C948A000C948A000C948A0028
:100030000C948A000C948A000C948A000C948A0018
:100040000C9420040C948A000C9483010C945D01A0
:100050000C948A000C948A000C948A000C948A00F8
:100060000C9461050C948A00000000002400270015
:100070002A0000000000250028002B0000000008D6
:10008000000201000003040700000000000000005F
:1000900000000000230026002900040404040404D6
:1000A0000404020202020202030303030303010227
:1000B00004081020408001020408102001020408F6
:1000C0001020800D11241FBECFEFD8E0DEBFCDBFC2
:1000D00023E0ACE7B1E001C01D92A134B207E1F723
:1000E00011E0A0E0B1E0ECEAF4E202C005900D926C
:1000F000AC37B107D9F710E0C2E6D0E004C02197D1
:10010000FE010E944210C136D107C9F70E94C00902
:100110000C9454120C940000FC01538D448D252F37
:1001200030E0842F90E0821B930B541710F0CF9691
:10013000089501970895FC01918D828D981761F0C3
:10014000828DDF01A80FB11D5D968C91928D9F5F0E
:100150009F73928F90E008958FEF9FEF0895FC01B9
:10016000918D828D981731F0828DE80FF11D858D6C
:1001700090E008958FEF9FEF0895FC01918D228DFF
:10018000892F90E0805C9F4F821B91098F73992784
:10019000089581E292E00E94BD0021E0892B09F4DC
:1001A00020E0822F0895FC01848DDF01A80FB11D8E
:1001B000A35ABF4F2C91848D90E001968F7399279D
:1001C000848FA689B7892C93A089B1898C9180648A
:1001D0008C93938D848D981306C00288F389E02D4B
:1001E00080818F7D80830895EF92FF920F931F93FC
:1001F000CF93DF93EC0181E0888F9B8D8C8D9813DA
:1002000005C0E889F989808185FD24C0F62E0B8D13
:1002100010E00F5F1F4F0F731127E02E8C8DE81237
:100220000CC00FB607FCFACFE889F989808185FFF9
:10023000F5CFCE010E94D300F1CF8B8DFE01E80FE8
:10024000F11DE35AFF4FF0820B8FEA89FB89808111
:10025000806207C0EE89FF896083E889F98980811F
:100260008064808381E090E0DF91CF911F910F91B6
:10027000FF90EF900895CF93DF93EC01888D882352
:10028000C9F0EA89FB89808185FD05C0A889B98903
:100290008C9186FD0FC00FB607FCF5CF808185FFDE
:1002A000F2CFA889B9898C9185FFEDCFCE010E944C
:1002B000D300E7CFDF91CF9108951F920F920FB631
:1002C0000F9211242F933F934F935F936F937F93DC
:1002D0008F939F93AF93BF93EF93FF9381E292E04D
:1002E0000E94D300FF91EF91BF91AF919F918F91A9
:1002F0007F916F915F914F913F912F910F900FBE22
:100300000F901F9018951F920F920FB60F92112405
:100310002F938F939F93EF93FF93E0913102F0918E
:1003200032028081E0913702F091380282FD12C0E2
:10033000908180913A028F5F8F7320913B028217E8
:1003400051F0E0913A02F0E0EF5DFD4F958F809320
:100350003A0201C08081FF91EF919F918F912F917F
:100360000F900FBE0F901F90189580E090E0892BA2
:1003700029F00E94C90081110C94000008953FB734
:10038000F8948091D2019091D301A091D401B091C1
:10039000D50126B5A89B05C02F3F19F00196A11DD8
:1003A000B11D3FBFBA2FA92F982F8827820F911D0B
:1003B000A11DB11DBC01CD0142E0660F771F881F52
:1003C000991F4A95D1F7089521E001C0220F6A953F
:1003D000EAF7DC011C962C931C971A965C934E93BB
:1003E0001997ED91FC910484F585E02D60E0099466
:1003F000DC01ED91FC910684F785E02D41E0099543
:1004000081E090E008950895089585ED8093BC0003
:100410008091BC0084FDFCCF1092FC0108954091B6
:10042000A601262F30E0240F311D21323105DCF4E6
:100430002091FC012430C9F4FC0180E090E0861793
:1004400058F43091A6012191DC01AC57BE4FA30FA7
:10045000B11D2C930196F3CF8091A601680F609394
:10046000A60180E0089581E0089582E0089508954E
:1004700081E090E03091CC012091CB01321710F453
:1004800080E090E091958195910908958091CC014B
:100490009091CB01891730F48F5F8093CC0180E07D
:1004A00090E008958FEF9FEF08958091CB0190E049
:1004B0002091CC01821B91090895CF92DF92EF9297
:1004C000FF920F931F93CF93DF937C01262F972FDB
:1004D0008A018091FD01882391F0C62FD72F6E01EC
:1004E000C40ED51ECC15DD0571F06991D701ED91D3
:1004F000FC910190F081E02DC7010995F3CF642FA5
:10050000822F0E940F02C801DF91CF911F910F919E
:10051000FF90EF90DF90CF900895CF93DF931F92DD
:10052000CDB7DEB769832091FD012223D1F0209160
:100530002002203240F021E030E0FC0133832283AE
:1005400080E090E015C08091FE01E82FF0E0E150DE
:10055000FE4F998190838F5F8093FE0180932002EC
:1005600005C061E0CE0101960E940F0281E090E09B
:100570000F90DF91CF910895089580E090E0089565
:100580000E943F12FC0123812223B9F091819095B2
:1005900069236083828191E09093FD0180931F0223
:1005A0001092FE011092200286E093E00E948D02DC
:1005B0000E946008282F30E002C020E030E081E097
:1005C00090E0232B11F080E090E00895EF92FF92ED
:1005D0000F931F93CF938C01FC01759684E0C0E0CC
:1005E00060FF02C09081C92B6695815031968111C0
:1005F000F7CF413011F4F8014489F8018585C82B03
:10060000C42B7801FEE0EF0EF11CF80162896C2B1F
:10061000C7010E94C202F801628960956C23C7017C
:10062000CF911F910F91FF90EF900C94C2020F9306
:100630001F93CF93DF93062F0F70423019F440E0E1
:10064000602F10C0142F262FEC0130E0B90184E098
:10065000759567958A95E1F7CE010E94E602412FD4
:10066000602FCE01DF91CF911F910F910C94E60284
:10067000FC0184858823A9F0218532852115310567
:1006800019F4611106C007C02130310521F4611150
:1006900002C0858701C015866585CF010E960C9432
:1006A000C202089590E0FC01E458FF4F3491FC0130
:1006B000E255FF4F2491FC01E656FF4FE491EE23F3
:1006C00009F43BC0332339F1333091F038F4313041
:1006D000A9F0323001F584B58F7D12C0373091F02A
:1006E0003830A1F03430B9F4809180008F7D03C0A0
:1006F000809180008F77809380000DC084B58F77C4
:1007000084BD09C08091B0008F7703C08091B00094
:100710008F7D8093B000F0E0EE0FFF1FEE58FF4F8B
:10072000A591B4918FB7F894EC91611103C0209515
:100730002E2301C02E2B2C938FBF0895CF93DF93D0
:1007400090E0FC01E255FF4F2491FC01E656FF4F7B
:100750008491882361F190E0880F991FFC01E8598A
:10076000FF4FC591D491FC01EE58FF4FA591B49174
:10077000611109C09FB7F8948881209582238883EE
:10078000EC912E230BC0623061F49FB7F89438814E
:10079000822F809583238883EC912E2B2C939FBFEF
:1007A00006C08FB7F894E8812E2B28838FBFDF9186
:1007B000CF9108958F929F92AF92BF92CF92DF9286
:1007C000EF92FF926B017C010E94BF014B015C0123
:1007D000C114D104E104F104F1F00E94BF01DC0175
:1007E000CB0188199909AA09BB09883E9340A10544
:1007F000B10570F321E0C21AD108E108F10888EED2
:10080000880E83E0981EA11CB11CC114D104E10420
:10081000F10419F7DDCFFF90EF90DF90CF90BF90FC
:10082000AF909F908F9008952FB7F8946091CE016C
:100830007091CF018091D0019091D1012FBF089587
:100840001F920F920FB60F9211242F933F938F9305
:100850009F93AF93BF938091CE019091CF01A091D0
:10086000D001B091D1013091CD0123E0230F2D377C
:1008700020F40196A11DB11D05C026E8230F0296A4
:10088000A11DB11D2093CD018093CE019093CF0186
:10089000A093D001B093D1018091D2019091D30166
:1008A000A091D401B091D5010196A11DB11D8093F5
:1008B000D2019093D301A093D401B093D501BF91FD
:1008C000AF919F918F913F912F910F900FBE0F90FD
:1008D0001F901895DC01ED91FC910684F785E02DC1
:1008E00040E009940F931F93CF93DF93EC014230C4
:1008F00018F08C8188608C834F836887222329F0CD
:10090000413019F48C8184608C8364E670E080E06F
:1009100090E00E94DA036C8164FD31C0E881F981C6
:100920000684F785E02D42E063E0CE0109958BE473
:1009300096E40197F1F7E881F9810684F785E02DC7
:1009400042E063E0CE01099503E512E0C80101979A
:10095000F1F7E881F9810684F785E02D42E063E054
:10096000CE010995C8010197F1F7E881F981068464
:10097000F785E02D42E062E0CE01099517C0606284
:10098000CE010E946A048BE496E40197F1F76C8132
:100990006062CE010E946A0403E512E0C80101977B
:1009A000F1F76C816062CE010E946A04C801019770
:1009B000F1F76C816062CE010E946A048BEE90E0D8
:1009C0000197F1F784E08D836CE0CE010E946A0408
:1009D00061E0CE010E946A048BE39FE10197F1F789
:1009E00082E08E8366E0CE010E946A04E881F9818C
:1009F0000484F585E02D6FEFCE01DF91CF911F913B
:100A00000F910994EF92FF920F931F93CF93DF936F
:100A1000EC01062FF42EE22E8B85888B1092CC01F0
:100A20001092CB011092FE01109220021092FC0154
:100A300011E01093FB011092D60161E082E10E9467
:100A4000520361E083E10E9452038091B9008E7FDE
:100A50008093B9008091B9008D7F8093B90088E4BC
:100A60008093B80085E48093BC0088891093FD01D1
:100A700080931F021092FE01109220020E946008D3
:100A800091E0811190E0998B992329F086E093E021
:100A90000E9446028E878989882339F01F861C822E
:100AA00060E0CE010E960E94C2022E2D4F2D602FC7
:100AB000CE01DF91CF911F910F91FF90EF900C9499
:100AC00072041F920F920FB60F9211242F933F932F
:100AD0004F935F936F937F938F939F93AF93BF9346
:100AE000EF93FF938091B900887F803609F49CC012
:100AF00068F5883209F45BC090F4803109F454C081
:100B000038F4882309F4F6C0883009F44DC0F6C0E3
:100B1000883109F44CC0803209F45DC0EFC08034E4
:100B200009F468C048F4803309F455C0883309F0EB
:100B3000E5C08093FA01D8C0803509F44FC08835EC
:100B400009F45DC0883409F0D9C0D6C0883909F4E9
:100B5000C7C0A8F4883709F467C038F4883609F4A8
:100B600063C0803709F460C0C9C0883809F4B8C0D0
:100B7000803909F45FC0803809F0C0C05BC0803B99
:100B800009F486C038F4803A09F466C0883A09F45A
:100B90007FC0B4C0803C09F4A7C0883C09F4A4C05D
:100BA000883B09F48AC0AAC08091D70110C09091F7
:100BB000F9018091F801981770F5E091F90181E051
:100BC0008E0F8093F901F0E0E852FE4F8081809310
:100BD000BB0085EC86C08093FA018EC0E091F901DC
:100BE00081E08E0F8093F9018091BB00F0E0E85224
:100BF000FE4F80839091F9018091F8016EC0E091E1
:100C0000F90181E08E0F8093F9018091BB00F0E043
:100C1000E852FE4F80838091FB0181116DC081E01D
:100C20008093D60184EA61C083E08093FC01109236
:100C3000CA01CFCF8091CA01803208F051C0E09143
:100C4000CA0181E08E0F8093CA018091BB00F0E061
:100C5000E655FE4F8083BDCF85EC8093BC0010929B
:100C6000FC018091CA01803230F4E091CA01F0E0C9
:100C7000E655FE4F10826091CA0170E0E091A80134
:100C8000F091A9018AEA91E009951092CA0136C053
:100C900084E08093FC011092A7011092A601E091DC
:100CA000A401F091A50109958091A601811105C0CB
:100CB00081E08093A60110928401E091A70181E078
:100CC0008E0F8093A701F0E0EC57FE4F8081809358
:100CD000BB009091A7018091A601981708F479CFE5
:100CE00085E88093BC000AC085EC8093BC0010921C
:100CF000FC0104C01092FA010E940502FF91EF91DD
:100D0000BF91AF919F918F917F916F915F914F9123
:100D10003F912F910F900FBE0F901F9018958F92BB
:100D20009F92AF92BF92CF92DF92EF92FF92CF93BA
:100D3000DF93A0911903882311F03A2F01C030E00E
:100D400080911A0390E0880F991F80579F4FC090A1
:100D50001F03D0902003E0902103F090220340E095
:100D600050E0BA01FC01C591D49128812A232313B4
:100D70000FC04A015B012FEF821A920AA20AB20A3F
:100D80004C155D056E057F0538F4B501A401EACF69
:100D9000342F252FCB0104C030E020E080E090E02C
:100DA000632F722FDF91CF91FF90EF90DF90CF9064
:100DB000BF90AF909F908F900895CF92DF92EF9267
:100DC000FF920F931F93CF93DF936C017A018B01F6
:100DD000C0E0D0E0CE15DF0589F0D8016D918D011E
:100DE000D601ED91FC910190F081E02DC6010995AD
:100DF000892B11F47E0102C02196ECCFC701DF914F
:100E0000CF911F910F91FF90EF90DF90CF900895B9
:100E10000F931F93CF93DF93EC0188819981009703
:100E200029F02A813B812617370788F48B016F5FF1
:100E30007F4F0E947511009761F0998388831B830F
:100E40000A832C813D81232B11F4FC01108281E067
:100E500001C080E0DF91CF911F910F910895CF9352
:100E6000DF93EC0188819981009711F00E94DD10D9
:100E7000198218821D821C821B821A82DF91CF91F7
:100E80000895E1E2F2E0A089B18982E08C93A48523
:100E9000B5851C92A685B7858FEC8C93108EA4899E
:100EA000B58986E08C93A289B3898C9180618C93FB
:100EB000A289B3898C9188608C93A289B3898C9123
:100EC00080688C930288F389E02D80818F7D8083F8
:100ED0000895CF92DF92EF92FF920F931F93CF93DB
:100EE000DF93CDB7DEB7C054D1400FB6F894DEBF64
:100EF0000FBECDBF0E94140400911B0310911C0370
:100F000020911D0330911E036B017C01C01AD10A90
:100F1000E20AF30A40EDC41647E0D406E104F10406
:100F200018F480912303BCC060931B0370931C03CF
:100F300080931D0390931E031092160310921503C5
:100F400010921403109213031092120361E0809127
:100F500017030E9452036AEF70E080E090E00E9465
:100F6000DA0361E0809117030E949E0360E08091A4
:100F700017030E94520364E170E080E090E00E9459
:100F8000DA03F89461E0809117030E9452038BE921
:100F900090E00197F1F762E0809117030E949E03B1
:100FA00083E290E00197F1F780E00E948F06672BC3
:100FB000682B692B21F41092230378943EC081E0C2
:100FC0000E948F06672B682B692BA9F38E010F5F98
:100FD0001F4F6E018FEBC81A8EEFD80A780180E0A0
:100FE0000E948F06F701608371838283938381E07F
:100FF0000E948F06F7016483758386839783F8E0E8
:10100000EF0EF11CEC14FD0451F7789420E030E071
:10101000F8014081518162817381C480D580E6806E
:10102000F780411551056105710529F0C114D104FE
:10103000E104F10421F41092230380E031C0F901AE
:1010400083E0F595E7958A95E1F7EE5EFC4F8081A8
:10105000880F4C155D056E057F0508F4816080835F
:101060002F5F3F4F085F1F4F2832310589F62091CF
:10107000160330E0409112038091130390E0840F37
:10108000911D40911403840F911D40911503840F0D
:10109000911D99272817390771F681E08093230362
:1010A000C05CDE4F0FB6F894DEBF0FBECDBFDF9140
:1010B000CF911F910F91FF90EF90DF90CF90089507
:1010C0002091200290911F02213208F04AC08091A5
:1010D000FC018111FCCF32E03093FC0131E0309310
:1010E000FB013FEF3093FA011092F9012093F801D0
:1010F000AFEFB1E048ED51E0FA013E2F341B32175B
:1011000018F43D913193F9CF1092D7012091D70176
:10111000990F922B9093D7019091D601913061F461
:101120001092D6019091D7019093BB009091BC0092
:1011300093FDF8CF95EC01C095EE9093BC00909193
:10114000FC019230E1F39091FA019F3F79F0809198
:10115000FA01803241F08091FA01803331F084E06D
:1011600005C081E003C082E001C083E01092FE016F
:10117000109220021092FD010895EF92FF920F93BA
:101180001F93CF93DF93EC01FB0184819581E08075
:10119000F1800C811D81E114F104B1F00097B9F0E8
:1011A000080F191FB801CE010E940807882361F0BB
:1011B000288139818C819D81B701820F931F0E9404
:1011C0004D121D830C8303C0CE010E942F07CE0158
:1011D000DF91CF911F910F91FF90EF900895EF92C3
:1011E000FF920F931F93CF93DF93EC017B018A0152
:1011F000BA010E940807811104C0CE010E942F0786
:1012000007C01D830C83B701888199810E944D120C
:10121000CE01DF91CF911F910F91FF90EF90089534
:10122000FC01808191810C94DD10EF92FF920F936D
:101230001F93CF93DF93CDB7DEB762970FB6F894C5
:10124000DEBF0FBECDBF8C01CB01F8011182108231
:10125000138212821582148250E09E012F5F3F4F4D
:101260007901B9010E940B0EF70101900020E9F706
:101270003197AF014E195F09B701C8010E94EF080D
:1012800062960FB6F894DEBF0FBECDBFDF91CF914F
:101290001F910F91FF90EF900895FC011182108231
:1012A00013821282158214826115710551F0FB01BF
:1012B00001900020E9F73197AF01461B570B0C94C2
:1012C000EF0808956115710579F0FB010190002088
:1012D000E9F73197AF01461B570BDC01ED91FC910B
:1012E0000280F381E02D099480E090E008954F9210
:1012F0005F926F927F92EF92FF920F931F93CF9323
:10130000DF93CDB7DEB7A1970FB6F894DEBF0FBE5F
:10131000CDBF7C01FA01CB0119A2223008F42AE0EA
:101320008E010F5D1F4F422E512C612C712CBF017D
:10133000A30192010E94460FF901CA01015011094F
:101340006A3014F4605D01C0695CD8016C93232B92
:10135000242B252B61F7B801C7010E946209A196D1
:101360000FB6F894DEBF0FBECDBFDF91CF911F91B6
:101370000F91FF90EF907F906F905F904F90089546
:10138000CF93DF93CDB7DEB7A4970FB6F894DEBF47
:101390000FBECDBF789484B5826084BD84B5816072
:1013A00084BD85B5826085BD85B5816085BD809130
:1013B0006E00816080936E001092810080918100A8
:1013C00082608093810080918100816080938100A0
:1013D000809180008160809380008091B100846062
:1013E0008093B1008091B00081608093B0008091C3
:1013F0007A00846080937A0080917A008260809382
:101400007A0080917A00816080937A0080917A00DE
:10141000806880937A001092C100109202031092AB
:10142000030310920403109205031092C00210925D
:10143000C1021092C2021092C3020E9414046B01F6
:101440007C014B015C0128EB820E2BE0921EA11C5B
:10145000B11C0E9414046C157D058E059F0528F0B3
:1014600086169706A806B906A0F781E292E0909347
:101470000103809300030E9441070E9414046093BB
:10148000C0027093C1028093C2029093C3026EE3C4
:1014900071E080910003909101030E9462090E9413
:1014A00014046B017C014B015C013AE0830E911C3A
:1014B000A11CB11C0E9414046C157D058E059F05AE
:1014C00028F086169706A806B906A0F781E0809353
:1014D000D40220E042E060E184E293E00E94020551
:1014E0000E94410740E050E063E084E293E00E9404
:1014F000E40161E084E293E00E94380362E084E268
:1015000093E00E946A048BE39FE10197F1F762E0A8
:10151000809117030E949E0380E398EFAFEFBFEF27
:1015200080931B0390931C03A0931D03B0931E0391
:1015300061E089E00E94520361E08AE00E94520368
:1015400061E08BE00E94520361E08CE00E94520354
:1015500061E089E00E949E0361E08AE00E949E03B0
:1015600061E08BE00E949E0361E08CE00E949E039C
:1015700062E083E00E949E0362E084E00E949E039A
:1015800062E085E00E949E0362E086E00E949E0386
:1015900062E087E00E949E0362E088E00E949E0372
:1015A00084EF882E99249394A12CB12C8E01035F93
:1015B0001F4F94E1792E24E5622E0E941404672BBC
:1015C000682B692B41F40E94140462307105810577
:1015D000910508F418C10E9414046093800170936F
:1015E0008101809382019093830120917C0130914D
:1015F0007D0140917E0150917F016217730784073E
:10160000950740F460937C0170937D0180937E0187
:1016100090937F01C0907C01D0907D01E0907E018D
:10162000F0907F019B01AC012C193D094E095F0927
:1016300069017A013AEFC316D104E104F10408F418
:10164000E2C060937C0170937D0180937E01909352
:101650007F018092CC029092CD02A092CE02B092F5
:10166000CF021092D0021092D1021092D2021092A8
:10167000D3028091C4029091C502A091C602B0919C
:10168000C7028093C8029093C902A093CA02B09384
:10169000CB020E9414046093C4027093C50280932D
:1016A000C6029093C7020E9414046093C002709314
:1016B000C1028093C2029093C3020E9414046B0182
:1016C0007C0160E571E080910003909101030E942C
:1016D00062092AE041E050E060E070E080910003A0
:1016E000909101030E94770967E571E08091000302
:1016F000909101030E9462092AE0B701A60180913E
:101700000003909101030E94770969E571E08091DF
:101710000003909101030E9462098091C40290919C
:10172000C502A091C602B091C702B701A601481B2D
:10173000590B6A0B7B0B2AE0809100039091010307
:101740000E94770969E571E080910003909101039F
:101750000E9462094091C4025091C5026091C60284
:101760007091C7028091C8029091C902A091CA02EB
:10177000B091CB02481B590B6A0B7B0B2AE080917E
:101780000003909101030E9477096BE571E080915D
:101790000003909101030E9462090E941404AB01AE
:1017A000BC012AE080910003909101030E94770917
:1017B00040900003509001036DE571E0C2010E946A
:1017C00062096DE471E0C2010E9462090E94140482
:1017D0006B017C011B012C0142E0240E311C411CD9
:1017E000511C0E9414046C157D058E059F0508F0A0
:1017F00080C10E9414046093C4027093C502809358
:10180000C6029093C70268EE73E080E090E00E9409
:10181000DA0362E084E293E00E946A048BE39FE1D2
:101820000197F1F764E671E0CE0101960E944D093F
:1018300018861F821A8619861C861B865FED5D87B7
:101840001E86F80101900020E9F73197AF01401B97
:10185000510BB801CE0107960E94EF086BE671E0CC
:10186000C8010E944D090E9469078823C9F180912F
:1018700018038B3029F0A0F18551823048F030C038
:101880006091140370E080E090E00E944B0E2CC049
:10189000E09014036E2D6F7770E080E090E00E947E
:1018A0004D0E20E030E040E853E40E94880E1B011A
:1018B0002C016091150370E080E090E00E944D0ED5
:1018C0009B01AC01C201B1010E94A00F2DEC3CECC8
:1018D0004CEC5DE30E94880EE7FE06C0905804C001
:1018E00060E070E080EC9FE70E940C104AE0CE01BF
:1018F00043960E94150966E671E0CE014F960E945C
:101900004D091A8E198E1C8E1B8E1E8E1D8E6F8D8C
:1019100078A16115710531F04BA15CA1CE0149960A
:101920000E94EF08BE016D5E7F4FCE0149960E9476
:10193000BD08B8010E94BD08BE01695F7F4F0E94CB
:10194000BD08BE016F5F7F4F0E94BD08FC0144814E
:1019500055816081718184E293E00E94DD06CE01B1
:1019600049960E941009CE014F960E941009CE019F
:1019700043960E941009C8010E941009CE010796E3
:101980000E941009CE0101960E94100968EE73E0D2
:1019900080E090E00E94DA031F82F0E4F887798605
:1019A0006A861982FA8380E18B8380E58C8320919B
:1019B0002B03223018F48FEF820F01C081E03091A9
:1019C0002C0390E0303129F4243019F4E1E0F0E008
:1019D00002C0E7E0F0E0EC0FFD1FE80FF91F6081A7
:1019E000606884E293E00E946A046DE671E0CE01D3
:1019F00001960E944D090E946907882399F1809100
:101A000018038B3039F170F18551823058F56091AF
:101A1000120370E080E090E00E944B0E20E030E086
:101A200040E853E40E94880E1B012C0160911303CF
:101A300070E080E090E00E944D0E9B01AC01C2017D
:101A4000B1010E94A00F2DEC3CEC4CEC5DE30E9438
:101A5000880E0CC06091120370E080E090E00E945C
:101A60004B0E04C060E070E080EC9FE70E940C1019
:101A70004AE0CE0107960E94150960E771E0CE01A9
:101A800043960E944D091E861D86188A1F861A8A53
:101A9000198A6B897C896115710529F04F89588DE8
:101AA000C8010E94EF08BE01695F7F4FC8010E9414
:101AB000BD08BE016F5F7F4F0E94BD08FC014481DD
:101AC00055816081718184E293E00E94DD06C80146
:101AD0000E941009CE0143960E941009CE0107967C
:101AE0000E941009CE0101960E9410090E94B501C2
:101AF00064CD261637064806590608F072CE79CE10
:101B0000E1E2F2E01382128288EE93E0A0E0B0E01E
:101B100084839583A683B7832AE031E031832083D1
:101B200025EC30E03587248724EC30E037872687A2
:101B300020EC30E0318B208B21EC30E0338B228B9A
:101B400022EC30E0358B248B26EC30E0378B268B73
:101B5000118E128E138E148EEEEBF2E01682178227
:101B600010861186128613861486158616861786A9
:101B7000108A118A128A138A148A158AE6E0F3E021
:101B80001382128284839583A683B7838CE191E0CC
:101B900091838083E4E2F3E0138212828EE291E08B
:101BA00091838083108A8FEF87871686118A8FE34F
:101BB0008387148615861286118684E0828B82E0E4
:101BC000838B91E0948B90E1958B90E2968B90E4DF
:101BD000978B90E8908FA2E1B3E015968C931597C0
:101BE0008BE016968C931697E0EBF0E0E491179655
:101BF000EC931797ECE9F0E0E4911896EC931897C2
:101C000040E85EE360E070E01D964D935D936D9358
:101C10007C93509708954532510520F4423010F0DE
:101C20000C94160EFB011082CB010895BB274A309D
:101C300031F4992322F4BDE2909581959F4F0C9445
:101C4000220EBB27FB015527AA27880F991FAA1F21
:101C5000A41710F0A41B83955051B9F7A05DAA33C7
:101C600008F0A95DA193009779F7B111B193119292
:101C7000CB010C943B0EDC01FC01672F71917723A3
:101C8000E1F7329704C07C916D9370836291AE1737
:101C9000BF07C8F30895E89409C097FB3EF49095F8
:101CA0008095709561957F4F8F4F9F4F9923A9F035
:101CB000F92F96E9BB279395F695879577956795C4
:101CC000B795F111F8CFFAF4BB0F11F460FF1BC008
:101CD0006F5F7F4F8F4F9F4F16C0882311F096E99B
:101CE00011C0772321F09EE8872F762F05C0662349
:101CF00071F096E8862F70E060E02AF09A95660F02
:101D0000771F881FDAF7880F9695879597F90895BA
:101D10000E949B0E0C940C0F0E94FE0E38F00E9445
:101D2000050F20F0952311F00C94F50E0C94FB0E8A
:101D300011240C94400F0E941D0F70F3959FC1F366
:101D4000950F50E0551F629FF001729FBB27F00D69
:101D5000B11D639FAA27F00DB11DAA1F649F6627BE
:101D6000B00DA11D661F829F2227B00DA11D621F0D
:101D7000739FB00DA11D621F839FA00D611D221FC7
:101D8000749F3327A00D611D231F849F600D211DAB
:101D9000822F762F6A2F11249F5750409AF0F1F02E
:101DA00088234AF0EE0FFF1FBB1F661F771F881F97
:101DB00091505040A9F79E3F510580F00C94F50ECC
:101DC0000C94400F5F3FE4F3983ED4F386957795EB
:101DD0006795B795F795E7959F5FC1F7FE2B880F3D
:101DE000911D9695879597F9089597F99F6780E8D3
:101DF00070E060E008959FEF80EC089500240A945D
:101E00001616170618060906089500240A941216D5
:101E10001306140605060895092E0394000C11F408
:101E2000882352F0BB0F40F4BF2B11F460FF04C0B5
:101E30006F5F7F4F8F4F9F4F089557FD9058440F0E
:101E4000551F59F05F3F71F04795880F97FB991F19
:101E500061F09F3F79F087950895121613061406D6
:101E6000551FF2CF4695F1DF08C016161706180663
:101E7000991FF1CF86957105610508940895E8943E
:101E8000BB2766277727CB0197F90895A1E21A2E81
:101E9000AA1BBB1BFD010DC0AA1FBB1FEE1FFF1F0E
:101EA000A217B307E407F50720F0A21BB30BE40B5E
:101EB000F50B661F771F881F991F1A9469F76095A5
:101EC0007095809590959B01AC01BD01CF0108955F
:101ED0002F923F924F925F926F927F928F929F923A
:101EE000AF92BF92CF92DF92EF92FF920F931F9328
:101EF000CF93DF93CDB7DEB7CA1BDB0B0FB6F894D9
:101F0000DEBF0FBECDBF09942A88398848885F8418
:101F10006E847D848C849B84AA84B984C884DF8089
:101F2000EE80FD800C811B81AA81B981CE0FD11D6D
:101F30000FB6F894DEBF0FBECDBFED010895505827
:101F4000BB27AA270E94B70F0C940C0F0E94FE0E0D
:101F500038F00E94050F20F039F49F3F19F426F461
:101F60000C94FB0E0EF4E095E7FB0C94F50EE92FB4
:101F70000E941D0F58F3BA1762077307840795076D
:101F800020F079F4A6F50C943F0F0EF4E0950B2E9B
:101F9000BA2FA02D0B01B90190010C01CA01A001BB
:101FA0001124FF27591B99F0593F50F4503E68F116
:101FB0001A16F040A22F232F342F4427585FF3CF57
:101FC000469537952795A795F0405395C9F77EF428
:101FD0001F16BA0B620B730B840BBAF09150A1F071
:101FE000FF0FBB1F661F771F881FC2F70EC0BA0FF7
:101FF000621F731F841F48F4879577956795B7957F
:10200000F7959E3F08F0B0CF9395880F08F0992779
:10201000EE0F9795879508950E9413106894B1115B
:102020000C94400F08950E94250F88F09F5798F058
:10203000B92F9927B751B0F0E1F0660F771F881FCD
:10204000991F1AF0BA95C9F714C0B13091F00E94E7
:102050003F0FB1E008950C943F0F672F782F88272A
:10206000B85F39F0B93FCCF3869577956795B3950E
:10207000D9F73EF490958095709561957F4F8F4F7D
:102080009F4F0895EE0FFF1F0590F491E02D0994E6
:10209000CF93DF938230910510F482E090E0E091DD
:1020A0003F03F091400320E030E0C0E0D0E0309703
:1020B00011F14081518148175907C0F0481759075D
:1020C00061F482819381209719F09B838A832BC0CE
:1020D0009093400380933F0326C02115310519F0EA
:1020E0004217530718F49A01BE01DF01EF01028085
:1020F000F381E02DDCCF2115310509F1281B390BC7
:102100002430310590F412968D919C9113976115AE
:10211000710521F0FB019383828304C090934003F7
:1021200080933F03FD01329644C0FD01E20FF31F8F
:1021300081939193225031092D933C933AC0209181
:102140003D0330913E03232B41F420910201309155
:10215000030130933E0320933D0320910001309111
:1021600001012115310541F42DB73EB7409104011D
:1021700050910501241B350BE0913D03F0913E0386
:10218000E217F307A0F42E1B3F0B2817390778F04E
:10219000AC014E5F5F4F2417350748F04E0F5F1FAD
:1021A00050933E0340933D038193919302C0E0E03E
:1021B000F0E0CF01DF91CF9108950F931F93CF935C
:1021C000DF93009709F48CC0FC01329713821282CE
:1021D00000913F03109140030115110581F4208106
:1021E0003181820F931F20913D0330913E032817C8
:1021F000390779F5F0933E03E0933D0371C0D801B0
:1022000040E050E0AE17BF0750F412962D913C917C
:102210001397AD012115310509F1D901F3CF9D01C6
:10222000DA013383228360817181860F971F8217C1
:10223000930769F4EC0128813981260F371F2E5F3F
:102240003F4F318320838A819B8193838283452BF7
:1022500029F4F0934003E0933F0342C01396FC93AC
:10226000EE931297ED01499159919E01240F351F6C
:10227000E217F30771F480819181840F951F029614
:1022800011969C938E938281938113969C938E9347
:102290001297E0E0F0E0D80112968D919C9113978F
:1022A000009719F0F8018C01F6CF8D919C9198015F
:1022B0002E5F3F4F820F931F20913D0330913E03CD
:1022C0002817390769F4309729F4109240031092C7
:1022D0003F0302C01382128210933E0300933D031A
:1022E000DF91CF911F910F910895A0E0B0E0EBE74F
:1022F000F1E10C946C0FEC01009721F4CB010E94EA
:102300004810B8C0FC01E60FF71F9C0122503109AC
:10231000E217F30708F4ACC0D9010D911C91119795
:1023200006171707B0F00530110508F49FC0C80163
:1023300004978617970708F499C002501109061BE5
:10234000170B019311936D937C93CF010E94DD10C5
:102350008DC05B01A01AB10A4C01800E911EA091A4
:102360003F03B091400340E050E0E12CF12C109786
:1023700009F44AC0A815B905D1F56D907C90119764
:10238000630182E0C80ED11CCA14DB0480F1A301F2
:102390004A195B096A0182E0C80ED11C1296BC90F2
:1023A00012971396AC91B5E0CB16D10440F0B282EF
:1023B000A38351834083D9016D937C930AC00E5F40
:1023C0001F4FC301800F911FF90191838083EB2D73
:1023D000FA2FE114F10431F0D7011396FC93EE9338
:1023E000129744C0F0934003E0933F033FC08D91A8
:1023F0009C9111974817590708F4AC017D0112967A
:102400000D90BC91A02DB3CF80913D0390913E03E0
:1024100088159905E1F446175707C8F48091000123
:1024200090910101009741F48DB79EB7409104014E
:1024300050910501841B950BE817F907C8F4F09338
:102440003E03E0933D03F901718360830FC0CB012C
:102450000E9448107C01009759F0A801BE010E941B
:102460004412CE010E94DD10C70104C0CE0102C09B
:1024700080E090E0CDB7DEB7EEE00C94880F81E00D
:1024800090E0F8940C945412FB01DC0102C001901E
:102490000D9241505040D8F70895FB01DC010190A6
:0C24A0000D920020E1F70895F894FFCFA2
:1024AC0000004103800000000000F400DD068C00F9
:1024BC003B01BD009B00AF00000000008D025D02DF
:1024CC00BD02370255024602380200000000F80136
:1024DC00DD06BD02BC020205E40138031703564DAC
:1024EC004450565F317C315F564D4450560D0A00B6
:1024FC00564D4450455F003A323A007C005F564DD1
:10250C0044504500430054656D703A20002025006E
:0C251C0048756D69646974793A2000000C
:00000001FF
