:100000000C9462000C948A000C948A000C948A0070
:100010000C948A000C948A000C948A000C948A0038
:100020000C948A000C948A000C948A000C948A0028
:100030000C948A000C948A000C948A000C948A0018
:100040000C940A040C948A000C9416030C94F0028D
:100050000C948A000C948A000C948A000C948A00F8
:100060000C944B050C948A0000000000240027002B
:100070002A0000000000250028002B0000000008D6
:10008000000201000003040700000000000000005F
:1000900000000000230026002900040404040404D6
:1000A0000404020202020202030303030303010227
:1000B00004081020408001020408102001020408F6
:1000C0001020370911241FBECFEFD8E0DEBFCDBF0F
:1000D00022E0A6E5B1E001C01D92AB3CB207E1F71A
:1000E00011E0A0E0B1E0E6E1F0E202C005900D927F
:1000F000A635B107D9F710E0C2E6D0E004C02197D9
:10010000FE010E94F70DC136D107C9F70E94B00960
:100110000C9409100C940000FC01538D448D252F84
:1001200030E0842F90E0821B930B541710F0CF9691
:10013000089501970895FC01918D828D981761F0C3
:10014000828DDF01A80FB11D5D968C91928D9F5F0E
:100150009F73928F90E008958FEF9FEF0895FC01B9
:10016000918D828D981731F0828DE80FF11D858D6C
:1001700090E008958FEF9FEF0895FC01918D228DFF
:10018000892F90E0805C9F4F821B91098F73992784
:100190000895FC01848DDF01A80FB11DA35ABF4F44
:1001A0002C91848D90E001968F739927848FA68976
:1001B000B7892C93A089B1898C9180648C93938D9D
:1001C000848D981306C00288F389E02D80818F7D8D
:1001D00080830895EF92FF920F931F93CF93DF9345
:1001E000EC0181E0888F9B8D8C8D981305C0E88988
:1001F000F989808185FD24C0F62E0B8D10E00F5FFC
:100200001F4F0F731127E02E8C8DE8120CC00FB614
:1002100007FCFACFE889F989808185FFF5CFCE0107
:100220000E94C900F1CF8B8DFE01E80FF11DE35A4A
:10023000FF4FF0820B8FEA89FB898081806207C0C3
:10024000EE89FF896083E889F989808180648083F1
:1002500081E090E0DF91CF911F910F91FF90EF909F
:100260000895CF93DF93EC01888D8823C9F0EA8944
:10027000FB89808185FD05C0A889B9898C9186FD9F
:100280000FC00FB607FCF5CF808185FFF2CFA8899C
:10029000B9898C9185FFEDCFCE010E94C900E7CFCF
:1002A000DF91CF91089580E090E0892B29F00E94A2
:1002B000F20681110C94000008953FB7F8948091E4
:1002C000A0019091A101A091A201B091A30126B536
:1002D000A89B05C02F3F19F00196A11DB11D3FBF7E
:1002E000BA2FA92F982F8827820F911DA11DB11D0C
:1002F000BC01CD0142E0660F771F881F991F4A9508
:10030000D1F7089521E001C0220F6A95EAF7DC01D8
:100310001C962C931C971A965C934E931997ED910B
:10032000FC910484F585E02D60E00994DC01ED91F9
:10033000FC910684F785E02D41E0099581E090E08D
:1003400008950895089585ED8093BC008091BC00C8
:1003500084FDFCCF1092CA01089540917801262FA8
:1003600030E0240F311D21323105DCF42091CA0127
:100370002430C9F4FC0180E090E0861758F43091F5
:1003800078012191DC01AA5ABE4FA30FB11D2C9315
:100390000196F3CF80917801680F6093780180E037
:1003A000089581E0089582E00895089581E090E045
:1003B00030919E0120919D01321710F480E090E071
:1003C000919581959109089580919E0190919D014B
:1003D000891730F48F5F80939E0180E090E008954C
:1003E0008FEF9FEF089580919D0190E020919E01F5
:1003F000821B91090895CF92DF92EF92FF920F93A3
:100400001F93CF93DF937C01262F972F8A01809132
:10041000CB01882391F0C62FD72F6E01C40ED51EB5
:10042000CC15DD0571F06991D701ED91FC9101903A
:10043000F081E02DC7010995F3CF642F822F0E9430
:10044000AD01C801DF91CF911F910F91FF90EF9007
:10045000DF90CF900895CF93DF931F92CDB7DEB793
:1004600069832091CB012223D1F02091EE0120322B
:1004700040F021E030E0FC013383228380E090E013
:1004800015C08091CC01E82FF0E0E353FE4F998135
:1004900090838F5F8093CC018093EE0105C061E073
:1004A000CE0101960E94AD0181E090E00F90DF91B6
:1004B000CF910895089580E090E008950E94F40F90
:1004C000FC0123812223B9F09181909569236083F7
:1004D000828191E09093CB018093ED011092CC0149
:1004E0001092EE0180E992E00E942B020E94DA084D
:1004F000282F30E002C020E030E081E090E0232BA4
:1005000011F080E090E00895EF92FF920F931F9317
:10051000CF938C01FC01759684E0C0E060FF02C0BF
:100520009081C92B6695815031968111F7CF41306A
:1005300011F4F8014489F8018585C82BC42B780192
:10054000FEE0EF0EF11CF80162896C2BC7010E94DE
:100550006002F801628960956C23C701CF911F91F9
:100560000F91FF90EF900C9460020F931F93CF9325
:10057000DF93062F0F70423019F440E0602F10C057
:10058000142F262FEC0130E0B90184E075956795B2
:100590008A95E1F7CE010E948402412F602FCE019F
:1005A000DF91CF911F910F910C948402FC018485FF
:1005B0008823A9F0218532852115310519F46111AF
:1005C00006C007C02130310521F4611102C08587C2
:1005D00001C015866585CF010E960C9460020895C2
:1005E0001F920F920FB60F9211242F933F934F93A8
:1005F0005F936F937F938F939F93AF93BF93EF938B
:10060000FF9383EF91E00E94C900FF91EF91BF91AA
:10061000AF919F918F917F916F915F914F913F919A
:100620002F910F900FBE0F901F9018951F920F9251
:100630000FB60F9211242F938F939F93EF93FF93F5
:10064000E0910302F09104028081E0910902F091AF
:100650000A0282FD12C0908180910C028F5F8F731D
:1006600020910D02821751F0E0910C02F0E0ED5064
:10067000FE4F958F80930C0201C08081FF91EF9116
:100680009F918F912F910F900FBE0F901F901895F3
:1006900090E0FC01E458FF4F3491FC01E255FF4F1C
:1006A0002491FC01E656FF4FE491EE2309F43BC090
:1006B000332339F1333091F038F43130A9F032304E
:1006C00001F584B58F7D12C0373091F03830A1F03C
:1006D0003430B9F4809180008F7D03C08091800018
:1006E0008F77809380000DC084B58F7784BD09C05B
:1006F0008091B0008F7703C08091B0008F7D809390
:10070000B000F0E0EE0FFF1FEE58FF4FA591B4913F
:100710008FB7F894EC91611103C020952E2301C08E
:100720002E2B2C938FBF0895CF93DF9390E0FC0185
:10073000E255FF4F2491FC01E656FF4F8491882338
:1007400061F190E0880F991FFC01E859FF4FC591B6
:10075000D491FC01EE58FF4FA591B491611109C0ED
:100760009FB7F8948881209582238883EC912E236B
:100770000BC0623061F49FB7F8943881822F809566
:1007800083238883EC912E2B2C939FBF06C08FB7B9
:10079000F894E8812E2B28838FBFDF91CF910895A5
:1007A0008F929F92AF92BF92CF92DF92EF92FF9281
:1007B0006B017C010E945D014B015C01C114D104FD
:1007C000E104F104F1F00E945D01DC01CB01881924
:1007D0009909AA09BB09883E9340A105B10570F3A8
:1007E00021E0C21AD108E108F10888EE880E83E002
:1007F000981EA11CB11CC114D104E104F10419F725
:10080000DDCFFF90EF90DF90CF90BF90AF909F90A3
:100810008F9008951F920F920FB60F9211242F936D
:100820003F938F939F93AF93BF938091EF019091EC
:10083000F001A091F101B091F20130919F0123E00C
:10084000230F2D3720F40196A11DB11D05C026E808
:10085000230F0296A11DB11D20939F018093EF01EC
:100860009093F001A093F101B093F2018091A00167
:100870009091A101A091A201B091A3010196A11DA7
:10088000B11D8093A0019093A101A093A201B09308
:10089000A301BF91AF919F918F913F912F910F90A5
:1008A0000FBE0F901F901895DC01ED91FC9106840E
:1008B000F785E02D40E009940F931F93CF93DF93CA
:1008C000EC01423018F08C8188608C834F836887FC
:1008D000222329F0413019F48C8184608C8364E6F2
:1008E00070E080E090E00E94D0036C8164FD31C034
:1008F000E881F9810684F785E02D42E063E0CE01CE
:1009000009958BE496E40197F1F7E881F981068473
:10091000F785E02D42E063E0CE01099503E512E0A2
:10092000C8010197F1F7E881F9810684F785E02D88
:1009300042E063E0CE010995C8010197F1F7E88133
:10094000F9810684F785E02D42E062E0CE01099549
:1009500017C06062CE010E9454048BE496E40197B4
:10096000F1F76C816062CE010E94540403E512E04D
:10097000C8010197F1F76C816062CE010E945404B6
:10098000C8010197F1F76C816062CE010E945404A6
:100990008BEE90E00197F1F784E08D836CE0CE015F
:1009A0000E94540461E0CE010E9454048BE39FE155
:1009B0000197F1F782E08E8366E0CE010E94540435
:1009C000E881F9810484F585E02D6FEFCE01DF9198
:1009D000CF911F910F910994EF92FF920F931F9364
:1009E000CF93DF93EC01062FF42EE22E8B85888BBC
:1009F00010929E0110929D011092CC011092EE0176
:100A00001092CA0111E01093C9011092A40161E093
:100A100082E10E94480361E083E10E9448038091E3
:100A2000B9008E7F8093B9008091B9008D7F80934B
:100A3000B90088E48093B80085E48093BC0088897D
:100A40001093CB018093ED011092CC011092EE0136
:100A50000E94DA0891E0811190E0998B992329F0A6
:100A600080E992E00E94E4018E878989882339F029
:100A70001F861C8260E0CE010E960E9460022E2D21
:100A80004F2D602FCE01DF91CF911F910F91FF90DD
:100A9000EF900C945C041F920F920FB60F921124EA
:100AA0002F933F934F935F936F937F938F939F9376
:100AB000AF93BF93EF93FF938091B900887F803607
:100AC00009F49CC068F5883209F45BC090F4803169
:100AD00009F454C038F4882309F4F6C0883009F4C6
:100AE0004DC0F6C0883109F44CC0803209F45DC0B5
:100AF000EFC0803409F468C048F4803309F455C06D
:100B0000883309F0E5C08093C801D8C0803509F466
:100B10004FC0883509F45DC0883409F0D9C0D6C00B
:100B2000883909F4C7C0A8F4883709F467C038F4D5
:100B3000883609F463C0803709F460C0C9C08838BA
:100B400009F4B8C0803909F45FC0803809F0C0C02A
:100B50005BC0803B09F486C038F4803A09F466C073
:100B6000883A09F47FC0B4C0803C09F4A7C0883C2F
:100B700009F4A4C0883B09F48AC0AAC08091A501E9
:100B800010C09091C7018091C601981770F5E0914F
:100B9000C70181E08E0F8093C701F0E0EA55FE4F58
:100BA00080818093BB0085EC86C08093C8018EC095
:100BB000E091C70181E08E0F8093C7018091BB0057
:100BC000F0E0EA55FE4F80839091C7018091C60105
:100BD0006EC0E091C70181E08E0F8093C7018091C4
:100BE000BB00F0E0EA55FE4F80838091C90181117E
:100BF0006DC081E08093A40184EA61C083E08093AA
:100C0000CA0110929C01CFCF80919C01803208F0E4
:100C100051C0E0919C0181E08E0F80939C018091F6
:100C2000BB00F0E0E458FE4F8083BDCF85EC80939D
:100C3000BC001092CA0180919C01803230F4E09196
:100C40009C01F0E0E458FE4F108260919C0170E03E
:100C5000E0917A01F0917B018CE791E00995109287
:100C60009C0136C084E08093CA01109279011092F1
:100C70007801E0917601F0917701099580917801F2
:100C8000811105C081E08093780110925601E091B6
:100C9000790181E08E0F80937901F0E0EA5AFE4FEE
:100CA00080818093BB0090917901809178019817A1
:100CB00008F479CF85E88093BC000AC085EC809366
:100CC000BC001092CA0104C01092C8010E94A30186
:100CD000FF91EF91BF91AF919F918F917F916F9114
:100CE0005F914F913F912F910F900FBE0F901F90EA
:100CF00018958F929F92AF92BF92CF92DF92EF9210
:100D0000FF92CF93DF93A091A302882311F03A2F93
:100D100001C030E08091A40290E0880F991F8057B5
:100D20009F4FC090A902D090AA02E090AB02F09031
:100D3000AC0240E050E0BA01FC01C591D491288199
:100D40002A2323130FC04A015B012FEF821A920A54
:100D5000A20AB20A4C155D056E057F0538F4B5018F
:100D6000A401EACF342F252FCB0104C030E020E0CE
:100D700080E090E0632F722FDF91CF91FF90EF9092
:100D8000DF90CF90BF90AF909F908F900895CF92BB
:100D9000DF92EF92FF920F931F93CF93DF936C013B
:100DA0007A018B01C0E0D0E0CE15DF0589F0D801D3
:100DB0006D918D01D601ED91FC910190F081E02DB6
:100DC000C6010995892B11F47E0102C02196ECCF52
:100DD000C701DF91CF911F910F91FF90EF90DF90AE
:100DE000CF90089583EF91E00E94BD0021E0892B10
:100DF00009F420E0822F0895CF92DF92EF92FF92C4
:100E00000F931F93CF93DF93CDB7DEB7C054D1407C
:100E10000FB6F894DEBF0FBECDBF2FB7F894809108
:100E2000EF019091F001A091F101B091F2012FBF7B
:100E30004091A5025091A6026091A7027091A8026C
:100E40008C019D01041B150B260B370BB901A80162
:100E5000403D57406105710518F48091AD02BCC05A
:100E60008093A5029093A602A093A702B093A80234
:100E70001092A00210929F0210929E0210929D0268
:100E800010929C0261E08091A1020E9448036AEFE7
:100E900070E080E090E00E94D00361E08091A102C8
:100EA0000E94940360E08091A1020E94480364E1E3
:100EB00070E080E090E00E94D003F89461E08091BF
:100EC000A1020E9448038BE990E00197F1F762E0EC
:100ED0008091A1020E94940383E290E00197F1F7D0
:100EE00080E00E947906672B682B692B21F4109211
:100EF000AD0278943EC081E00E947906672B682B92
:100F0000692BA9F38E010F5F1F4F6E012FEBC21AE1
:100F10002EEFD20A780180E00E947906F701608303
:100F200071838283938381E00E947906F701648351
:100F3000758386839783F8E0EF0EF11CEC14FD04B3
:100F400051F7789420E030E0F801408151816281CE
:100F50007381C480D580E680F78041155105610515
:100F6000710529F0C114D104E104F10421F41092B7
:100F7000AD0280E031C0F90183E0F595E7958A95EF
:100F8000E1F7E456FD4F8081880F4C155D056E0535
:100F90007F0508F4816080832F5F3F4F085F1F4FFC
:100FA0002832310589F62091A00230E040919C0260
:100FB00080919D0290E0840F911D40919E02840FCC
:100FC000911D40919F02840F911D99272817390781
:100FD00071F681E08093AD02C05CDE4F0FB6F894ED
:100FE000DEBF0FBECDBFDF91CF911F910F91FF905C
:100FF000EF90DF90CF9008950F931F93CF93DF93DF
:10100000EC0188819981009729F02A813B8126177C
:10101000370788F48B016F5F7F4F0E942A0F00977C
:1010200061F0998388831B830A832C813D81232B64
:1010300011F4FC01108281E001C080E0DF91CF91CA
:101040001F910F910895CF93DF93EC0188819981CF
:10105000009711F00E94920E198218821D821C8244
:101060001B821A82DF91CF910895EF92FF920F9326
:101070001F93CF93DF93EC01FB0184819581E08086
:10108000F1800C811D81E114F104B1F00097B9F0F9
:10109000080F191FB801CE010E94FC07882361F0D8
:1010A000288139818C819D81B701820F931F0E9415
:1010B00002101D830C8303C0CE010E942308CE01C1
:1010C000DF91CF911F910F91FF90EF900895EF92D4
:1010D000FF920F931F93CF93DF93EC017B018A0163
:1010E000BA010E94FC07811104C0CE010E942308AE
:1010F00007C01D830C83B701888199810E9402106B
:10110000CE01DF91CF911F910F91FF90EF90089545
:10111000FC01808191810C94920EEF92FF920F93CB
:101120001F93CF93DF93CDB7DEB762970FB6F894D6
:10113000DEBF0FBECDBF8C01CB01F8011182108242
:10114000138212821582148250E09E012F5F3F4F5E
:101150007901B9010E94E20BF70101900020E9F743
:101160003197AF014E195F09B701C8010E946708A6
:1011700062960FB6F894DEBF0FBECDBFDF91CF9160
:101180001F910F91FF90EF900895FC011182108242
:1011900013821282158214826115710551F0FB01D0
:1011A00001900020E9F73197AF01461B570B0C94D3
:1011B000670808952091EE019091ED01213208F029
:1011C0004AC08091CA018111FCCF32E03093CA013C
:1011D00031E03093C9013FEF3093C8011092C7014D
:1011E0002093C601ADECB1E046EA51E0FA013E2F92
:1011F000341B321718F43D913193F9CF1092A501A9
:101200002091A501990F922B9093A5019091A40193
:10121000913061F41092A4019091A5019093BB00CC
:101220009091BC0093FDF8CF95EC01C095EE9093A2
:10123000BC009091CA019230E1F39091C8019F3FA8
:1012400079F08091C801803241F08091C8018033EB
:1012500031F084E005C081E003C082E001C083E09A
:101260001092CC011092EE011092CB010895E3EFA1
:10127000F1E01382128288EE93E0A0E0B0E0848374
:101280009583A683B7832AE031E03183208325EC60
:1012900030E03587248724EC30E03787268720EC40
:1012A00030E0318B208B21EC30E0338B228B22EC31
:1012B00030E0358B248B26EC30E0378B268B118E7B
:1012C000128E138E148EE0E9F2E013821282848370
:1012D0009583A683B7838CE191E091838083EEEAC6
:1012E000F2E0138212828EE291E091838083108A71
:1012F0008FEF87871686118A8FE38387148615867A
:101300001286118684E0828B82E0838B91E0948B3D
:1013100090E1958B90E2968B90E4978B90E8908F7C
:10132000ACE9B2E015968C9315978BE016968C93EA
:101330001697E0EBF0E0E4911796EC931797ECE941
:10134000F0E0E4911896EC93189740E85EE360E0D3
:1013500070E01D964D935D936D937C935097089527
:10136000CF93DF93CDB7DEB7A4970FB6F894DEBF67
:101370000FBECDBF789484B5826084BD84B5816092
:1013800084BD85B5826085BD85B5816085BD809150
:101390006E00816080936E001092810080918100C8
:1013A00082608093810080918100816080938100C0
:1013B000809180008160809380008091B100846082
:1013C0008093B1008091B00081608093B0008091E3
:1013D0007A00846080937A0080917A0082608093A2
:1013E0007A0080917A00816080937A0080917A00FF
:1013F000806880937A001092C10020E042E060E1B2
:101400008EEA92E00E94EC04E0910302F091040263
:1014100082E08083E091FF01F09100021082E09170
:101420000102F09102028FEC808310920B02E09196
:101430000702F091080286E08083E0910502F091B6
:101440000602808180618083E0910502F0910602AE
:10145000808188608083E0910502F091060280819E
:1014600080688083E0910502F091060280818F7D83
:10147000808340E050E063E08EEA92E00E948201C7
:1014800061E08EEA92E00E94D60262E08EEA92E08B
:101490000E9454048BE39FE10197F1F762E0809191
:1014A000A1020E94940380E398EFAFEFBFEF809317
:1014B000A5029093A602A093A702B093A8028BE383
:1014C000E82E8FE1F82E9FEDC92E8E01035F1F4F8E
:1014D00020E4D22E34E1B32E44E5A42E50E1952E23
:1014E00068EE73E080E090E00E94D00362E08EEA54
:1014F00092E00E945404C7010197F1F76EE371E096
:10150000CE0101960E94C50818861F821A86198688
:101510001C861B86CD861E86F80101900020E9F707
:101520003197AF01401B510BB801CE0107960E94C5
:10153000670865E471E0C8010E94C5080E94FC06C6
:101540008823C9F18091A2028B3029F0A0F1855146
:10155000823048F030C060919E0270E080E090E000
:101560000E94220C2CC070909E02672D6F7770E055
:1015700080E090E00E94240C20E030E040E853E45A
:101580000E945F0C1B012C0160919F0270E080E0C3
:1015900090E00E94240C9B01AC01C201B1010E94A9
:1015A000550D2DEC3CEC4CEC5DE30E945F0C77FE9E
:1015B00006C0905804C060E070E080EC9FE70E9495
:1015C000C10D4AE0CE0143960E948D0860E471E0AF
:1015D000CE014F960E94C5081A8E198E1C8E1B8E46
:1015E0001E8E1D8E6F8D78A16115710531F04BA196
:1015F0005CA1CE0149960E946708BE016D5E7F4FD7
:10160000CE0149960E943508B8010E943508BE01F6
:10161000695F7F4F0E943508BE016F5F7F4F0E9458
:101620003508FC0144815581608171818EEA92E028
:101630000E94C706CE0149960E948808CE014F96A7
:101640000E948808CE0143960E948808C8010E9423
:101650008808CE0107960E948808CE0101960E9454
:10166000880868EE73E080E090E00E94D0031F825B
:10167000D886B986AA861982DA829B8280E58C8315
:101680002091B502223018F48FEF820F01C081E063
:101690003091B60290E0303129F4243019F4E1E0C1
:1016A000F0E002C0E7E0F0E0EC0FFD1FE80FF91FEB
:1016B000608160688EEA92E00E94540467E471E001
:1016C000CE0101960E94C5080E94FC06882399F16C
:1016D0008091A2028B3039F170F18551823058F53A
:1016E00060919C0270E080E090E00E94220C20E07B
:1016F00030E040E853E40E945F0C2B013C01609114
:101700009D0270E080E090E00E94240C9B01AC01FF
:10171000C301B2010E94550D2DEC3CEC4CEC5DE395
:101720000E945F0C0CC060919C0270E080E090E031
:101730000E94220C04C060E070E080EC9FE70E94F1
:10174000C10D4AE0CE0107960E948D086AE471E05F
:10175000CE0143960E94C5081E861D86188A1F86E4
:101760001A8A198A6B897C896115710529F04F895C
:10177000588DC8010E946708BE01695F7F4FC8018C
:101780000E943508BE016F5F7F4F0E943508FC0143
:1017900044815581608171818EEA92E00E94C70682
:1017A000C8010E948808CE0143960E948808CE0195
:1017B00007960E948808CE0101960E9488080E9420
:1017C00053018ECE4532510520F4423010F00C9476
:1017D000ED0BFB011082CB010895BB274A3031F499
:1017E000992322F4BDE2909581959F4F0C94F90BBB
:1017F000BB27FB015527AA27880F991FAA1FA417EB
:1018000010F0A41B83955051B9F7A05DAA3308F0DE
:10181000A95DA193009779F7B111B1931192CB0112
:101820000C94120CDC01FC01672F71917723E1F716
:10183000329704C07C916D9370836291AE17BF079D
:10184000C8F30895E89409C097FB3EF490958095FD
:10185000709561957F4F8F4F9F4F9923A9F0F92F76
:1018600096E9BB279395F695879577956795B795F4
:10187000F111F8CFFAF4BB0F11F460FF1BC06F5FDA
:101880007F4F8F4F9F4F16C0882311F096E911C0EC
:10189000772321F09EE8872F762F05C0662371F00D
:1018A00096E8862F70E060E02AF09A95660F771F21
:1018B000881FDAF7880F9695879597F908950E9403
:1018C000720C0C94E30C0E94D50C38F00E94DC0CD6
:1018D00020F0952311F00C94CC0C0C94D20C112414
:1018E0000C94170D0E94F40C70F3959FC1F3950FA3
:1018F00050E0551F629FF001729FBB27F00DB11D94
:10190000639FAA27F00DB11DAA1F649F6627B00D23
:10191000A11D661F829F2227B00DA11D621F739F0C
:10192000B00DA11D621F839FA00D611D221F749F1A
:101930003327A00D611D231F849F600D211D822F61
:10194000762F6A2F11249F5750409AF0F1F0882388
:101950004AF0EE0FFF1FBB1F661F771F881F9150B5
:101960005040A9F79E3F510580F00C94CC0C0C948C
:10197000170D5F3FE4F3983ED4F38695779567950E
:10198000B795F795E7959F5FC1F7FE2B880F911DDF
:101990009695879597F9089597F99F6780E870E085
:1019A00060E008959FEF80EC089500240A941616D5
:1019B000170618060906089500240A94121613063D
:1019C000140605060895092E0394000C11F48823CB
:1019D00052F0BB0F40F4BF2B11F460FF04C06F5FE7
:1019E0007F4F8F4F9F4F089557FD9058440F551FBD
:1019F00059F05F3F71F04795880F97FB991F61F091
:101A00009F3F79F087950895121613061406551F07
:101A1000F2CF4695F1DF08C0161617061806991F73
:101A2000F1CF86957105610508940895E894BB2768
:101A300066277727CB0197F908952F923F924F920F
:101A40005F926F927F928F929F92AF92BF92CF924E
:101A5000DF92EF92FF920F931F93CF93DF93CDB757
:101A6000DEB7CA1BDB0B0FB6F894DEBF0FBECDBFCF
:101A700009942A88398848885F846E847D848C84A0
:101A80009B84AA84B984C884DF80EE80FD800C81A9
:101A90001B81AA81B981CE0FD11D0FB6F894DEBF8C
:101AA0000FBECDBFED0108955058BB27AA270E9455
:101AB0006C0D0C94E30C0E94D50C38F00E94DC0CE9
:101AC00020F039F49F3F19F426F40C94D20C0EF454
:101AD000E095E7FB0C94CC0CE92F0E94F40C58F332
:101AE000BA17620773078407950720F079F4A6F503
:101AF0000C94160D0EF4E0950B2EBA2FA02D0B01B1
:101B0000B90190010C01CA01A0011124FF27591B42
:101B100099F0593F50F4503E68F11A16F040A22F48
:101B2000232F342F4427585FF3CF469537952795B9
:101B3000A795F0405395C9F77EF41F16BA0B620BB8
:101B4000730B840BBAF09150A1F0FF0FBB1F661FFF
:101B5000771F881FC2F70EC0BA0F621F731F841F42
:101B600048F4879577956795B795F7959E3F08F068
:101B7000B0CF9395880F08F09927EE0F979587952A
:101B800008950E94C80D6894B1110C94170D089522
:101B90000E94FC0C88F09F5798F0B92F9927B751F5
:101BA000B0F0E1F0660F771F881F991F1AF0BA9501
:101BB000C9F714C0B13091F00E94160DB1E008953C
:101BC0000C94160D672F782F8827B85F39F0B93F2E
:101BD000CCF3869577956795B395D9F73EF49095B4
:101BE0008095709561957F4F8F4F9F4F0895EE0FB1
:101BF000FF1F0590F491E02D0994CF93DF9382307D
:101C0000910510F482E090E0E091C902F091CA02DF
:101C100020E030E0C0E0D0E0309711F14081518108
:101C200048175907C0F04817590761F4828193811A
:101C3000209719F09B838A832BC09093CA028093CC
:101C4000C90226C02115310519F04217530718F4AF
:101C50009A01BE01DF01EF010280F381E02DDCCFAC
:101C60002115310509F1281B390B2430310590F479
:101C700012968D919C9113976115710521F0FB01CE
:101C80009383828304C09093CA028093C902FD01AA
:101C9000329644C0FD01E20FF31F819391932250CD
:101CA00031092D933C933AC02091C7023091C8026C
:101CB000232B41F420910201309103013093C8029B
:101CC0002093C702209100013091010121153105B7
:101CD00041F42DB73EB74091040150910501241BFA
:101CE000350BE091C702F091C802E217F307A0F4A8
:101CF0002E1B3F0B2817390778F0AC014E5F5F4F62
:101D00002417350748F04E0F5F1F5093C8024093C9
:101D1000C7028193919302C0E0E0F0E0CF01DF9130
:101D2000CF9108950F931F93CF93DF93009709F4FA
:101D30008CC0FC013297138212820091C90210916B
:101D4000CA020115110581F420813181820F931F90
:101D50002091C7023091C8022817390779F5F0930E
:101D6000C802E093C70271C0D80140E050E0AE174E
:101D7000BF0750F412962D913C911397AD01211598
:101D8000310509F1D901F3CF9D01DA0133832283B3
:101D900060817181860F971F8217930769F4EC01A8
:101DA00028813981260F371F2E5F3F4F31832083D3
:101DB0008A819B8193838283452B29F4F093CA0205
:101DC000E093C90242C01396FC93EE931297ED0183
:101DD000499159919E01240F351FE217F30771F4C1
:101DE00080819181840F951F029611969C938E930A
:101DF0008281938113969C938E931297E0E0F0E09A
:101E0000D80112968D919C911397009719F0F801C3
:101E10008C01F6CF8D919C9198012E5F3F4F820FE0
:101E2000931F2091C7023091C8022817390769F41F
:101E3000309729F41092CA021092C90202C013828C
:101E400012821093C8020093C702DF91CF911F91B5
:101E50000F910895A0E0B0E0E0E3FFE00C94210DC5
:101E6000EC01009721F4CB010E94FD0DB8C0FC01EC
:101E7000E60FF71F9C0122503109E217F30708F41F
:101E8000ACC0D9010D911C91119706171707B0F03E
:101E90000530110508F49FC0C801049786179707FD
:101EA00008F499C002501109061B170B01931193F6
:101EB0006D937C93CF010E94920E8DC05B01A01A9E
:101EC000B10A4C01800E911EA091C902B091CA02C4
:101ED00040E050E0E12CF12C109709F44AC0A8151D
:101EE000B905D1F56D907C901197630182E0C80E21
:101EF000D11CCA14DB0480F1A3014A195B096A01F1
:101F000082E0C80ED11C1296BC9012971396AC9129
:101F1000B5E0CB16D10440F0B282A3835183408355
:101F2000D9016D937C930AC00E5F1F4FC301800FD0
:101F3000911FF90191838083EB2DFA2FE114F104B5
:101F400031F0D7011396FC93EE93129744C0F093AF
:101F5000CA02E093C9023FC08D919C911197481726
:101F6000590708F4AC017D0112960D90BC91A02D8B
:101F7000B3CF8091C7029091C80288159905E1F40A
:101F800046175707C8F4809100019091010100970E
:101F900041F48DB79EB74091040150910501841B17
:101FA000950BE817F907C8F4F093C802E093C7024D
:101FB000F901718360830FC0CB010E94FD0D7C018C
:101FC000009759F0A801BE010E94F90FCE010E94AE
:101FD000920EC70104C0CE0102C080E090E0CDB7F0
:101FE000DEB7EEE00C943D0D81E090E0F8940C94A7
:101FF0000910FB01DC0102C001900D9241505040DC
:10200000D8F70895FB01DC0101900D920020E1F763
:062010000895F894FFCFD3
:102016000000CB02800000000000EA00C7068C002A
:102026003101BD009B00AF00000000002B02FB0148
:102036005B02D501F301E401D60100000000960120
:10204600C7065B025A02EC048201D602B5024300BF
:1020560054656D703A200020250048756D696469E5
:0620660074793A2000002D
:00000001FF
