:100000000C9462000C948A000C948A000C948A0070
:100010000C948A000C948A000C948A000C948A0038
:100020000C948A000C948A000C948A000C948A0028
:100030000C948A000C948A000C948A000C948A0018
:100040000C9460060C948A000C94F3020C94CD027C
:100050000C948A000C948A000C948A000C948A00F8
:100060000C94A1070C948A000000000024002700D3
:100070002A0000000000250028002B0000000008D6
:10008000000201000003040700000000000000005F
:1000900000000000230026002900040404040404D6
:1000A0000404020202020202030303030303010227
:1000B00004081020408001020408102001020408F6
:1000C00010201A0911241FBECFEFD8E0DEBFCDBF2C
:1000D00011E0A0E0B1E0E6EEF2E202C005900D9280
:1000E000A238B107D9F722E0A2E8B1E001C01D9221
:1000F000A83FB207E1F710E0C2E6D0E004C02197C4
:10010000FE010E94850EC136D107C9F70E949309EE
:100110000C9471110C9400008F929F92AF92BF9239
:10012000CF92DF92EF92FF92CF93DF93A09185025F
:10013000882311F03A2F01C030E08091860290E0D0
:10014000880F991F80579F4FC0908B02D0908C02D0
:10015000E0908D02F0908E0240E050E0BA01FC0188
:10016000C591D49128812A2323130FC04A015B0132
:100170002FEF821A920AA20AB20A4C155D056E058B
:100180007F0538F4B501A401EACF342F252FCB0128
:1001900004C030E020E080E090E0632F722FDF9118
:1001A000CF91FF90EF90DF90CF90BF90AF909F9056
:1001B0008F900895CF92DF92EF92FF920F931F934B
:1001C000CF93DF936C017A018B01C0E0D0E0CE15B4
:1001D000DF0589F0D8016D918D01D601ED91FC917B
:1001E0000190F081E02DC6010995892B11F47E0163
:1001F00002C02196ECCFC701DF91CF911F910F91E3
:10020000FF90EF90DF90CF900895FC01538D448DC7
:10021000252F30E0842F90E0821B930B541710F0B1
:10022000CF96089501970895FC01918D828D9817BE
:1002300061F0828DDF01A80FB11D5D968C91928DCA
:100240009F5F9F73928F90E008958FEF9FEF0895C7
:10025000FC01918D828D981731F0828DE80FF11D90
:10026000858D90E008958FEF9FEF0895FC01918DAB
:10027000228D892F90E0805C9F4F821B91098F73A4
:100280009927089581EE91E00E94360121E0892BA3
:1002900009F420E0822F0895FC01848DDF01A80F6E
:1002A000B11DA35ABF4F2C91848D90E001968F739E
:1002B0009927848FA689B7892C93A089B1898C91BD
:1002C00080648C93938D848D981306C00288F38983
:1002D000E02D80818F7D80830895EF92FF920F93B0
:1002E0001F93CF93DF93EC0181E0888F9B8D8C8DE2
:1002F000981305C0E889F989808185FD24C0F62E10
:100300000B8D10E00F5F1F4F0F731127E02E8C8DA8
:10031000E8120CC00FB607FCFACFE889F989808192
:1003200085FFF5CFCE010E944C01F1CF8B8DFE01F0
:10033000E80FF11DE35AFF4FF0820B8FEA89FB892A
:100340008081806207C0EE89FF896083E889F9892E
:1003500080818064808381E090E0DF91CF911F9164
:100360000F91FF90EF900895CF93DF93EC01888D6C
:100370008823C9F0EA89FB89808185FD05C0A889A9
:10038000B9898C9186FD0FC00FB607FCF5CF80812F
:1003900085FFF2CFA889B9898C9185FFEDCFCE0179
:1003A0000E944C01E7CFDF91CF91089580E090E06B
:1003B000892B29F00E94420181110C9400000895BC
:1003C000CF93DF9390E0FC01E255FF4F2491FC01B5
:1003D000E656FF4F8491882361F190E0880F991FC2
:1003E000FC01E859FF4FC591D491FC01EE58FF4F35
:1003F000A591B491611109C09FB7F89488812095A7
:1004000082238883EC912E230BC0623061F49FB766
:10041000F8943881822F809583238883EC912E2B4A
:100420002C939FBF06C08FB7F894E8812E2B2883AA
:100430008FBFDF91CF9108950F931F93CF93DF93D9
:10044000CDB7DEB7C055D1090FB6F894DEBF0FBEE9
:10045000CDBF9E01255A3F4F6B964EAD5FAD6B975A
:1004600060E570E0CE0101960E94900E8E010F5F54
:100470001F4FF80180818823D9F08A3059F4E09128
:100480009002F09191020190F081E02D6DE080E901
:1004900092E00995E0919002F09191020190F08133
:1004A000E02DD8016D918D0180E992E00995E1CFB1
:1004B000C05BDF4F0FB6F894DEBF0FBECDBFDF913C
:1004C000CF911F910F91089562E080E992E00E9420
:1004D000AA068BE39FE10197F1F708950E948B0E26
:1004E0002091CC019091CB01213208F04AC080913B
:1004F000A8018111FCCF32E03093A80131E03093A4
:10050000A7013FEF3093A6011092A5012093A4010B
:10051000ABEAB1E044E851E0FA013E2F341B321758
:1005200018F43D913193F9CF10928301209183010A
:10053000990F922B9093830190918201913061F4F5
:1005400010928201909183019093BB009091BC0026
:1005500093FDF8CF95EC01C095EE9093BC0090917F
:10056000A8019230E1F39091A6019F3F79F080912C
:10057000A601803241F08091A601803331F084E001
:1005800005C081E003C082E001C083E01092AA01AF
:100590001092CC011092A90108951F920F920FB6EC
:1005A0000F9211242F933F934F935F936F937F93F9
:1005B0008F939F93AF93BF93EF93FF9381EE91E05F
:1005C0000E944C01FF91EF91BF91AF919F918F914C
:1005D0007F916F915F914F913F912F910F900FBE3F
:1005E0000F901F9018951F920F920FB60F92112423
:1005F0002F938F939F93EF93FF93E091F101F091ED
:10060000F2018081E091F701F091F80182FD12C0C2
:1006100090818091FA018F5F8F732091FB01821787
:1006200051F0E091FA01F0E0EF51FE4F958F809389
:10063000FA0101C08081FF91EF919F918F912F91DD
:100640000F900FBE0F901F901895833081F028F403
:10065000813099F08230A1F008958730A9F0883078
:10066000B9F08430D1F4809180008F7D03C08091F7
:1006700080008F7780938000089584B58F7702C0C3
:1006800084B58F7D84BD08958091B0008F7703C0BD
:100690008091B0008F7D8093B00008951F93CF9319
:1006A000DF93282F30E0F901E458FF4F8491F901DE
:1006B000E255FF4FD491F901E656FF4FC491CC2388
:1006C000C9F0162F81110E942503EC2FF0E0EE0FE8
:1006D000FF1FEE58FF4FA591B4918FB7F8941111F9
:1006E00005C09C91ED2FE095E92302C0EC91ED2B24
:1006F000EC938FBFDF91CF911F910895CF92DF923E
:10070000EF92FF920F931F93CF93DF93CDB7DEB796
:10071000C054D1400FB6F894DEBF0FBECDBF2FB787
:10072000F8948091CD019091CE01A091CF01B0912C
:10073000D0012FBF409187025091880260918902B9
:1007400070918A028C019D01041B150B260B370B3F
:10075000B901A801403D57406105710518F4809129
:100760008F02BCC08093870290938802A093890275
:10077000B0938A021092820210928102109280023B
:1007800010927F0210927E0261E0809183020E94AB
:100790004E036AEF70E080E090E00E94260661E080
:1007A000809183020E94E00160E0809183020E94B8
:1007B0004E0364E170E080E090E00E942606F89429
:1007C00061E0809183020E944E038BE990E00197E3
:1007D000F1F762E0809183020E94E00183E290E001
:1007E0000197F1F780E00E948C00672B682B692B42
:1007F00021F410928F0278943EC081E00E948C0018
:10080000672B682B692BA9F38E010F5F1F4F6E01B9
:100810002FEBC21A2EEFD20A780180E00E948C00E2
:10082000F701608371838283938381E00E948C004F
:10083000F7016483758386839783F8E0EF0EF11CDC
:10084000EC14FD0451F7789420E030E0F801408189
:10085000518162817381C480D580E680F780411523
:1008600051056105710529F0C114D104E104F104B9
:1008700021F410928F0280E031C0F90183E0F595F8
:10088000E7958A95E1F7E258FD4F8081880F4C1576
:100890005D056E057F0508F4816080832F5F3F4F03
:1008A000085F1F4F2832310589F62091820230E01F
:1008B00040917E0280917F0290E0840F911D4091D3
:1008C0008002840F911D40918102840F911D992710
:1008D0002817390771F681E080938F02C05CDE4FE4
:1008E0000FB6F894DEBF0FBECDBFDF91CF911F9141
:1008F0000F91FF90EF90DF90CF9008953FB7F8945D
:100900008091F4029091F502A091F602B091F70265
:1009100026B5A89B05C02F3F19F00196A11DB11D5A
:100920003FBFBA2FA92F982F8827820F911DA11D95
:10093000B11DBC01CD0142E0660F771F881F991FD2
:100940004A95D1F7089521E001C0220F6A95EAF790
:10095000DC011C962C931C971A965C934E93199766
:10096000ED91FC910484F585E02D60E00994DC01B3
:10097000ED91FC910684F785E02D41E0099581E039
:1009800090E008950895089585ED8093BC008091CE
:10099000BC0084FDFCCF1092A80108954091CC02C8
:1009A000262F30E0240F311D21323105DCF4209157
:1009B000A8012430C9F4FC0180E090E0861758F4C7
:1009C0003091CC022191DC01A655BD4FA30FB11D82
:1009D0002C930196F3CF8091CC02680F6093CC02E8
:1009E00080E0089581E0089582E00895089581E00F
:1009F00090E03091F2022091F102321710F480E081
:100A000090E091958195910908958091F2029091DD
:100A1000F102891730F48F5F8093F20280E090E05A
:100A200008958FEF9FEF08958091F10290E020915B
:100A3000F202821B91090895CF92DF92EF92FF920A
:100A40000F931F93CF93DF937C01262F972F8A015B
:100A50008091A901882391F0C62FD72F6E01C40E73
:100A6000D51ECC15DD0571F06991D701ED91FC9192
:100A70000190F081E02DC7010995F3CF642F822FFB
:100A80000E94CE04C801DF91CF911F910F91FF907A
:100A9000EF90DF90CF900895CF93DF931F92CDB763
:100AA000DEB769832091A9012223D1F02091CC01E6
:100AB000203240F021E030E0FC013383228380E0EB
:100AC00090E015C08091AA01E82FF0E0E555FE4FB7
:100AD000998190838F5F8093AA018093CC0105C098
:100AE00061E0CE0101960E94CE0481E090E00F907B
:100AF000DF91CF910895089580E090E00895FC0182
:100B000023812223B9F091819095692360838281AA
:100B100091E09093A9018093CB011092AA011092C9
:100B2000CC0181ED91E00E944C050E947002282FBB
:100B300030E002C020E030E081E090E0232B11F0B3
:100B400080E090E00895EF92FF920F931F93CF9370
:100B50008C01FC01759684E0C0E060FF02C09081CA
:100B6000C92B6695815031968111F7CF413011F430
:100B7000F8014489F8018585C82BC42B7801FEE073
:100B8000EF0EF11CF80162896C2BC7010E947F05F2
:100B9000F801628960956C23C701CF911F910F9175
:100BA000FF90EF900C947F050F931F93CF93DF93EB
:100BB000062F0F70423019F440E0602F10C0142F40
:100BC000262FEC0130E0B90184E0759567958A9590
:100BD000E1F7CE010E94A305412F602FCE01DF91E6
:100BE000CF911F910F910C94A305FC01848588235C
:100BF000A9F0218532852115310519F4611106C04E
:100C000007C02130310521F4611102C0858701C080
:100C100015866585CF010E960C947F0508958E305C
:100C200008F08E508770806480937C0080917A00F9
:100C3000806480937A0080917A0086FDFCCF809159
:100C400078002091790090E0922B08958F929F92E6
:100C5000AF92BF92CF92DF92EF92FF926B017C0135
:100C60000E947E044B015C01C114D104E104F10433
:100C7000F1F00E947E04DC01CB0188199909AA09D0
:100C8000BB09883E9340A105B10570F321E0C21A6B
:100C9000D108E108F10888EE880E83E0981EA11CB7
:100CA000B11CC114D104E104F10419F7DDCFFF90A8
:100CB000EF90DF90CF90BF90AF909F908F9008956E
:100CC0001F920F920FB60F9211242F933F938F9381
:100CD0009F93AF93BF938091CD019091CE01A0914E
:100CE000CF01B091D0013091F30223E0230F2D37D3
:100CF00020F40196A11DB11D05C026E8230F029620
:100D0000A11DB11D2093F3028093CD019093CE01DC
:100D1000A093CF01B093D0018091F4029091F5029D
:100D2000A091F602B091F7020196A11DB11D80932A
:100D3000F4029093F502A093F602B093F702BF91EC
:100D4000AF919F918F913F912F910F900FBE0F9078
:100D50001F901895DC01ED91FC910684F785E02D3C
:100D600040E009940F931F93CF93DF93EC0142303F
:100D700018F08C8188608C834F836887222329F048
:100D8000413019F48C8184608C8364E670E080E0EB
:100D900090E00E9426066C8164FD31C0E881F981F3
:100DA0000684F785E02D42E063E0CE0109958BE4EF
:100DB00096E40197F1F7E881F9810684F785E02D43
:100DC00042E063E0CE01099503E512E0C801019716
:100DD000F1F7E881F9810684F785E02D42E063E0D0
:100DE000CE010995C8010197F1F7E881F9810684E0
:100DF000F785E02D42E062E0CE01099517C0606200
:100E0000CE010E94AA068BE496E40197F1F76C816B
:100E10006062CE010E94AA0603E512E0C8010197B4
:100E2000F1F76C816062CE010E94AA06C8010197A9
:100E3000F1F76C816062CE010E94AA068BEE90E011
:100E40000197F1F784E08D836CE0CE010E94AA0641
:100E500061E0CE010E94AA068BE39FE10197F1F7C2
:100E600082E08E8366E0CE010E94AA06E881F981C5
:100E70000484F585E02D6FEFCE01DF91CF911F91B6
:100E80000F910994EF92FF920F931F93CF93DF93EB
:100E9000EC01062FF42EE22E8B85888B1092F20245
:100EA0001092F1021092AA011092CC011092A801A6
:100EB00011E01093A7011092820161E082E10E948B
:100EC0004E0361E083E10E944E038091B9008E7F62
:100ED0008093B9008091B9008D7F8093B90088E438
:100EE0008093B80085E48093BC0088891093A901A1
:100EF0008093CB011092AA011092CC010E94700243
:100F000091E0811190E0998B992329F081ED91E096
:100F10000E9405058E878989882339F01F861C82E7
:100F200060E0CE010E960E947F052E2D4F2D602F82
:100F3000CE01DF91CF911F910F91FF90EF900C9414
:100F4000B2061F920F920FB60F9211242F933F9368
:100F50004F935F936F937F938F939F93AF93BF93C1
:100F6000EF93FF938091B900887F803609F49CC08D
:100F700068F5883209F45BC090F4803109F454C0FC
:100F800038F4882309F4F6C0883009F44DC0F6C05F
:100F9000883109F44CC0803209F45DC0EFC0803460
:100FA00009F468C048F4803309F455C0883309F067
:100FB000E5C08093A601D8C0803509F44FC08835BC
:100FC00009F45DC0883409F0D9C0D6C0883909F465
:100FD000C7C0A8F4883709F467C038F4883609F424
:100FE00063C0803709F460C0C9C0883809F4B8C04C
:100FF000803909F45FC0803809F0C0C05BC0803B15
:1010000009F486C038F4803A09F466C0883A09F4D5
:101010007FC0B4C0803C09F4A7C0883C09F4A4C0D8
:10102000883B09F48AC0AAC08091830110C09091C6
:10103000A5018091A401981770F5E091A50181E0C8
:101040008E0F8093A501F0E0EC57FE4F80818093D6
:10105000BB0085EC86C08093A6018EC0E091A501FF
:1010600081E08E0F8093A5018091BB00F0E0EC57EA
:10107000FE4F80839091A5018091A4016EC0E09104
:10108000A50181E08E0F8093A5018091BB00F0E067
:10109000EC57FE4F80838091A70181116DC081E0E4
:1010A0008093820184EA61C083E08093A80110925A
:1010B000F002CFCF8091F002803208F051C0E09171
:1010C000F00281E08E0F8093F0028091BB00F0E08F
:1010D000E053FD4F8083BDCF85EC8093BC00109220
:1010E000A8018091F002803230F4E091F002F0E04B
:1010F000E053FD4F10826091F00270E0E091CE026B
:10110000F091CF0280ED92E009951092F00236C086
:1011100084E08093A8011092CD021092CC02E0915D
:10112000CA02F091CB0209958091CC02811105C0D1
:1011300081E08093CC021092AA02E091CD0281E07E
:101140008E0F8093CD02F0E0E655FD4F80818093B5
:10115000BB009091CD028091CC02981708F479CF12
:1011600085E88093BC000AC085EC8093BC00109297
:10117000A80104C01092A6010E94C404FF91EF913F
:10118000BF91AF919F918F917F916F915F914F919F
:101190003F912F910F900FBE0F901F901895CF93F6
:1011A000DF93811108C081E090E09093010180936A
:1011B00000011092A902E4E8F0E08491E6EBF0E08F
:1011C000D491E2EAF0E0C491CC2371F081110E9445
:1011D0002503EC2FF0E0EE0FFF1FE057FF4FA59126
:1011E000B491EC91ED2359F48091000190910101AB
:1011F0000197C1F4109201011092000113C0809177
:10120000000190910101892B69F481E090E09093B5
:101210000101809300018091A902811108C081E041
:101220008093A9028091A902DF91CF910895109235
:10123000A902F8CFE1EEF1E01382128288EE93E08A
:10124000A0E0B0E084839583A683B78326E031E0F5
:101250003183208325EC30E03587248724EC30E08F
:101260003787268720EC30E0318B208B21EC30E073
:10127000338B228B22EC30E0358B248B26EC30E054
:10128000378B268B118E128E138E148EE1EDF1E0CA
:101290001382128284839583A683B78388E191E0C9
:1012A00091838083E0E9F2E0138212828AE291E086
:1012B00091838083108A8FEF87871686118A8FE348
:1012C0008387148615861286118684E0828B82E0DD
:1012D000838B91E0948B90E1958B90E2968B90E4D8
:1012E000978B90E8908FAEE7B2E015968C931597A8
:1012F0008BE016968C931697E0EBF0E0E49117964E
:10130000EC931797ECE9F0E0E4911896EC931897BA
:1013100040E85EE360E070E01D964D935D936D9351
:101320007C9350970895CF93DF93CDB7DEB72C977A
:101330000FB6F894DEBF0FBECDBF789484B582603F
:1013400084BD84B5816084BD85B5826085BD85B569
:10135000816085BD80916E00816080936E001092E7
:101360008100809181008260809381008091810062
:1013700081608093810080918000816080938000F3
:101380008091B10084608093B1008091B000816051
:101390008093B00080917A00846080937A0080917D
:1013A0007A00826080937A0080917A0081608093D5
:1013B0007A0080917A00806880937A001092C10050
:1013C00020E042E060E180E992E00E944207E09183
:1013D000F101F091F20182E08083E091ED01F09162
:1013E000EE011082E091EF01F091F0018FEC80832B
:1013F0001092F901E091F501F091F60186E0808309
:10140000E091F301F091F401808180618083E091AB
:10141000F301F091F401808188608083E091F30111
:10142000F091F401808180688083E091F301F09174
:10143000F40180818F7D808340E050E063E080E9AB
:1014400092E00E94A30461E080E992E00E94F50529
:101450000E94640262E0809183020E94E00180E3C6
:1014600098EFAFEFBFEF8093870290938802A0932D
:101470008902B0938A0261E089E00E944E0361E034
:101480008AE00E944E0361E08BE00E944E0361E01F
:101490008CE00E944E0361E089E00E94E00161E07F
:1014A0008AE00E94E00161E08BE00E94E00161E0DF
:1014B0008CE00E94E00161E08DE00E94E00162E0CA
:1014C00083E00E94E00162E084E00E94E00162E0CB
:1014D00085E00E94E00162E086E00E94E00162E0B7
:1014E00087E00E94E00162E088E00E94E0016EE394
:1014F00073E080E090E00E9426068091DF019091E9
:10150000E00101969093E0018093DF010E947E0349
:101510008823C9F1809184028B3029F0A0F1855194
:10152000823048F030C06091800270E080E090E04E
:101530000E94620D2CC010918002612F6F7770E0C5
:1015400080E090E00E94640D20E030E040E853E449
:101550000E94F00D6B017C016091810270E080E0DF
:1015600090E00E94640D9B01AC01C701B6010E948E
:101570004E0C2DEC3CEC4CEC5DE30E94F00D17FFA3
:1015800006C0905804C060E070E080EC9FE70E94C5
:101590002C0D28E030E03A872987212C312CC12CF2
:1015A000D12C00E010E0E12CF12C2B01770F660824
:1015B000770882E00E940F069C01C301B2012B87CD
:1015C0003C870E94640D4B015C012B853C85B90171
:1015D000330F880B990B0E94640D24E13EEA47EE1D
:1015E0005FE30E94BA0CA50194010E944E0C0E9478
:1015F0002C0DE60EF71E83E00E940F06BC01990F2A
:10160000880B990B0E94640D24E13EEA47EE5FE3EC
:101610000E94BA0CA50194010E944E0C0E942C0D50
:10162000060F171F80E00E940F06BC01990F880B60
:10163000990B0E94640D24E13EEA47EE5FE30E94AD
:10164000BA0CA50194010E944E0C0E942C0DC60EEE
:10165000D71E81E00E940F06BC01990F880B990BE1
:101660000E94640D24E13EEA47EE5FE30E94BA0C5B
:10167000A50194010E944E0C0E942C0D260E371ECF
:1016800089859A8501979A878987892B09F091CF57
:10169000F7FE03C097E0E90EF11C53E0F594E794E0
:1016A0005A95E1F717FF02C0095F1F4F43E01595F8
:1016B00007954A95E1F70E0D1F1DC601D7FC079649
:1016C00033E0959587953A95E1F7080F191FC10109
:1016D00037FC079623E0959587952A95E1F7080F43
:1016E000191F17FF02C00D5F1F4F15950795159520
:1016F00007950E9464021D82A0E4AE83B4E1BF831B
:1017000084E588871982AA8380E18B8380E58C83B6
:1017100020919702223018F48FEF820F01C081E0F0
:101720003091980290E0303129F4243019F4E1E04E
:10173000F0E002C0E5E0F0E0EC0FFD1FE80FF91F5C
:101740006081606880E992E00E94AA068091DD01D4
:101750009091DE016CE370E00E945D0E9F938F9389
:101760007F936F931F930F93AAE3B1E0BF93AF935F
:1017700080E9E82E82E0F82EFF92EF920E941C0290
:1017800081E00E94CF080FB6F894DEBF0FBECDBF38
:101790008823C9F10E9464021F92B4E1BF931F9293
:1017A0008CE88F93ADE4B1E0BF93AF93FF92EF92DB
:1017B0000E941C020FB6F894DEBF0FBECDBF0D38DD
:1017C0001105ACF061E089E00E944E0361E08BE01E
:1017D0000E944E038091DD019091DE01892B69F515
:1017E000A1E0B0E0B093DE01A093DD0126C00C378C
:1017F00011051CF560E089E00E944E0360E08BE07B
:101800000E944E031AC061E089E00E944E0361E02D
:101810008BE00E944E031092DE011092DD010E94C7
:101820006402AFE5B1E0BF93AF93FF92EF920E94E5
:101830001C020F900F900F900F908091DD019091FE
:10184000DE01009739F101969093DE018093DD016E
:10185000803B9440FCF061E089E00E944E0361E02F
:101860008BE00E944E031092DE011092DD010E9477
:101870006402A0E7B1E0BF93AF9380E992E09F9349
:101880008F930E941C0280E00E94CF080F900F905F
:101890000F900F900E94D6012ACE5058BB27AA273E
:1018A0000E94650C0C94B60D0E94A80D38F00E94A1
:1018B000AF0D20F039F49F3F19F426F40C94A50DD8
:1018C0000EF4E095E7FB0C949F0DE92F0E94C70DE5
:1018D00058F3BA17620773078407950720F079F465
:1018E000A6F50C94E90D0EF4E0950B2EBA2FA02D61
:1018F0000B01B90190010C01CA01A0011124FF27BD
:10190000591B99F0593F50F4503E68F11A16F040B7
:10191000A22F232F342F4427585FF3CF46953795B6
:101920002795A795F0405395C9F77EF41F16BA0B7B
:10193000620B730B840BBAF09150A1F0FF0FBB1F29
:10194000661F771F881FC2F70EC0BA0F621F731F72
:10195000841F48F4879577956795B795F7959E3FCF
:1019600008F0B0CF9395880F08F09927EE0F979560
:10197000879508950E94CE0C0C94B60D0E94AF0D71
:1019800058F00E94A80D40F029F45F3F29F00C9414
:101990009F0D51110C94EA0D0C94A50D0E94C70DDA
:1019A00068F39923B1F3552391F3951B550BBB278E
:1019B000AA2762177307840738F09F5F5F4F220FD3
:1019C000331F441FAA1FA9F335D00E2E3AF0E0E8CA
:1019D00032D091505040E695001CCAF72BD0FE2F14
:1019E00029D0660F771F881FBB1F261737074807A8
:1019F000AB07B0E809F0BB0B802DBF01FF27935860
:101A00005F4F3AF09E3F510578F00C949F0D0C9477
:101A1000EA0D5F3FE4F3983ED4F38695779567959A
:101A2000B795F7959F5FC9F7880F911D9695879594
:101A300097F90895E1E0660F771F881FBB1F6217B3
:101A400073078407BA0720F0621B730B840BBA0B71
:101A5000EE1F88F7E09508950E94330D6894B11148
:101A60000C94EA0D08950E94CF0D88F09F5798F0CE
:101A7000B92F9927B751B0F0E1F0660F771F881F93
:101A8000991F1AF0BA95C9F714C0B13091F00E94AD
:101A9000E90DB1E008950C94E90D672F782F8827A0
:101AA000B85F39F0B93FCCF3869577956795B395D4
:101AB000D9F73EF490958095709561957F4F8F4F43
:101AC0009F4F0895E89409C097FB3EF49095809548
:101AD000709561957F4F8F4F9F4F9923A9F0F92FF4
:101AE00096E9BB279395F695879577956795B79572
:101AF000F111F8CFFAF4BB0F11F460FF1BC06F5F58
:101B00007F4F8F4F9F4F16C0882311F096E911C069
:101B1000772321F09EE8872F762F05C0662371F08A
:101B200096E8862F70E060E02AF09A95660F771F9E
:101B3000881FDAF7880F9695879597F9089597F992
:101B40009F6780E870E060E008959FEF80EC089563
:101B500000240A941616170618060906089500248C
:101B60000A9412161306140605060895092E039406
:101B7000000C11F4882352F0BB0F40F4BF2B11F47A
:101B800060FF04C06F5F7F4F8F4F9F4F089557FDD9
:101B90009058440F551F59F05F3F71F04795880FDB
:101BA00097FB991F61F09F3F79F087950895121672
:101BB00013061406551FF2CF4695F1DF08C016161E
:101BC00017061806991FF1CF8695710561050894CF
:101BD0000895E894BB2766277727CB0197F90895E6
:101BE0000E94030E0C94B60D0E94A80D38F00E94BE
:101BF000AF0D20F0952311F00C949F0D0C94A50DC2
:101C000011240C94EA0D0E94C70D70F3959FC1F347
:101C1000950F50E0551F629FF001729FBB27F00D9A
:101C2000B11D639FAA27F00DB11DAA1F649F6627EF
:101C3000B00DA11D661F829F2227B00DA11D621F3E
:101C4000739FB00DA11D621F839FA00D611D221FF8
:101C5000749F3327A00D611D231F849F600D211DDC
:101C6000822F762F6A2F11249F5750409AF0F1F05F
:101C700088234AF0EE0FFF1FBB1F661F771F881FC8
:101C800091505040A9F79E3F510580F00C949F0D54
:101C90000C94EA0D5F3FE4F3983ED4F38695779574
:101CA0006795B795F795E7959F5FC1F7FE2B880F6E
:101CB000911D9695879597F9089597FB072E16F431
:101CC000009407D077FD09D00E94710E07FC05D063
:101CD0003EF4909581959F4F0895709561957F4F43
:101CE0000895AA1BBB1B51E107C0AA1FBB1FA61763
:101CF000B70710F0A61BB70B881F991F5A95A9F7B5
:101D000080959095BC01CD010895EE0FFF1F0590C1
:101D1000F491E02D099481E090E0F8940C94711115
:101D2000AEE0B0E0E6E9FEE00C9448118C01CA0197
:101D300046E04C831A83098377FF02C060E070E8B5
:101D4000FB013197FE83ED83A901BC01CE01019611
:101D50000E94BC0E4D815E8157FD0AC02F813885DF
:101D6000421753070CF49A01F801E20FF31F108297
:101D70002E96E4E00C946411ACE0B0E0E2ECFEE0FE
:101D80000C943A117C016B018A01FC0117821682C6
:101D9000838181FFBDC1CE0101964C01F701938182
:101DA000F60193FD859193FF81916F01882309F4DA
:101DB000ABC1853239F493FD859193FF81916F0119
:101DC000853229F4B70190E00E94A410E7CF512C8E
:101DD000312C20E02032A0F48B3269F030F48032D4
:101DE00059F0833269F420612CC08D3239F0803390
:101DF00039F4216026C02260246023C0286021C0FD
:101E000027FD27C030ED380F3A3078F426FF06C0A2
:101E1000FAE05F9E300D1124532E13C08AE0389EE5
:101E2000300D1124332E20620CC08E3221F426FD99
:101E30006BC1206406C08C3611F4206802C088365D
:101E400041F4F60193FD859193FF81916F0181111A
:101E5000C1CF982F9F7D9554933028F40C5F1F4F6E
:101E6000FFE3F9830DC0833631F0833771F083359A
:101E700009F05BC022C0F801808189830E5F1F4F8B
:101E800044244394512C540115C03801F2E06F0EE4
:101E9000711CF801A080B18026FF03C0652D70E0A1
:101EA00002C06FEF7FEFC5012C870E9499102C01B3
:101EB00083012C852F77222E17C03801F2E06F0E98
:101EC000711CF801A080B18026FF03C0652D70E071
:101ED00002C06FEF7FEFC5012C870E948E102C018E
:101EE0002C852068222E830123FC1BC0832D90E0CB
:101EF00048165906B0F4B70180E290E00E94A410A1
:101F00003A94F4CFF50127FC859127FE81915F017A
:101F1000B70190E00E94A41031103A94F1E04F1AFA
:101F200051084114510471F7E5C0843611F0893627
:101F300039F5F80127FF07C06081718182819381A3
:101F40000C5F1F4F08C060817181072E000C880B49
:101F5000990B0E5F1F4F2F76722E97FF09C0909539
:101F60008095709561957F4F8F4F9F4F2068722E9F
:101F70002AE030E0A4010E94DC10A82EA81844C07A
:101F8000853729F42F7EB22E2AE030E025C0F22FCB
:101F9000F97FBF2E8F36C1F018F4883579F0B4C0C0
:101FA000803719F0883721F0AFC02F2F2061B22E73
:101FB000B4FE0DC08B2D8460B82E09C024FF0AC06A
:101FC0009F2F9660B92E06C028E030E005C020E1C2
:101FD00030E002C020E132E0F801B7FE07C06081C6
:101FE0007181828193810C5F1F4F06C06081718176
:101FF00080E090E00E5F1F4FA4010E94DC10A82E2D
:10200000A818FB2DFF777F2E76FE0BC0372D3E7F65
:10201000A51450F474FE0AC072FC08C0372D3E7E31
:1020200005C0BA2C372D03C0BA2C01C0B52C34FF23
:102030000DC0FE01EA0DF11D8081803311F4397E5F
:1020400009C032FF06C0B394B39404C0832F8678CE
:1020500009F0B39433FD13C030FF06C05A2CB314FB
:1020600018F4530C5B18B32CB31468F4B70180E276
:1020700090E03C870E94A410B3943C85F5CFB31444
:1020800010F43B1801C0312C34FF12C0B70180E3BB
:1020900090E03C870E94A4103C8532FF17C031FDC0
:1020A00003C088E790E002C088E590E0B7010CC06B
:1020B000832F867859F031FF02C08BE201C080E2A5
:1020C00037FD8DE2B70190E00E94A410A51438F40A
:1020D000B70180E390E00E94A4105A94F7CFAA942D
:1020E000F401EA0DF11D8081B70190E00E94A41077
:1020F000A110F5CF332009F451CEB70180E290E072
:102100000E94A4103A94F6CFF7018681978102C00D
:102110008FEF9FEF2C96E2E10C945611FC01059095
:10212000615070400110D8F7809590958E0F9F1FD9
:102130000895FC016150704001900110D8F780951E
:1021400090958E0F9F1F08950F931F93CF93DF934A
:10215000FB01238121FD03C08FEF9FEF28C022FFE9
:1021600016C046815781248135814217530744F4B4
:10217000A081B1819D012F5F3F4F318320838C93DC
:10218000268137812F5F3F4F3783268310C0EB01B5
:10219000092F182F0084F185E02D0995892BE1F690
:1021A0008E819F8101969F838E83812F902FDF9157
:1021B000CF911F910F910895FA01AA27283051F16C
:1021C000203181F1E8946F936E7F6E5F7F4F8F4F68
:1021D0009F4FAF4FB1E03ED0B4E03CD0670F781FC7
:1021E000891F9A1FA11D680F791F8A1F911DA11DAC
:1021F0006A0F711D811D911DA11D20D009F46894E5
:102200003F912AE0269F11243019305D3193DEF68C
:10221000CF010895462F4770405D4193B3E00FD042
:10222000C9F7F6CF462F4F70405D4A3318F0495D2D
:1022300031FD4052419302D0A9F7EACFB4E0A69510
:102240009795879577956795BA95C9F70097610532
:10225000710508959B01AC010A2E06945795479588
:1022600037952795BA95C9F7620F731F841F951F7D
:10227000A01D08952F923F924F925F926F927F928E
:102280008F929F92AF92BF92CF92DF92EF92FF9286
:102290000F931F93CF93DF93CDB7DEB7CA1BDB0B32
:1022A0000FB6F894DEBF0FBECDBF09942A883988D7
:1022B00048885F846E847D848C849B84AA84B984DE
:1022C000C884DF80EE80FD800C811B81AA81B981EA
:1022D000CE0FD11D0FB6F894DEBF0FBECDBFED01FE
:0622E0000895F894FFCF01
:1022E6000100000000006D01DA000501B4013601AD
:1022F60014012801000000004C051C057C05F604AD
:1023060014050505F70400000000B704DA007C0593
:102316007B054207A304F505D40554202533642024
:1023260020253264206D202532642073004D656DB2
:102336006272616E653A202533642F25326400206F
:1023460020202020202020202020202020202000A7
:102356004D656D6272616E653A20646F6E65202010
:02236600000075
:00000001FF
